:400000000080002011000000B9040000B904000008B5044B1A6803F53F5302331A6000F053FA00BFFA46004010B5054C237833B9044B13B10448AFF300800123237010BDB0
:400040005081FF1F00000000880C0000084B10B51BB108490848AFF300800848036803B910BD074B002BFBD0BDE81040184700BF000000005481FF1F880C0000C880FF1FCA
:400080000000000010B500F02BFC324C208000F0DFFB80B2238803EB430303EB03139B009BB22D49A1FB03239B0803EB830303EB8303C3F30D03294AA2FB03E35B082380FA
:4000C00000EB400000EB0010800080B2A1FB0001890801EB810101EB8101C1F30D01A2FB011252081E490A801E490B801E490A801E4A1288934207D3002000F05BFD1B4A00
:400100005388053B538006E0012000F053FD174A538805335380144B1A88144B1B889A4204D9124A93880A3B938003E00F4A93880A3393800D4CA07800F0C8FA207900F065
:4001400033FB002000F0D4FB002000F089FB00F095FA10BD7881FF1FCDCCCCCC3F82FB087681FF1F7A81FF1F7481FF1FCC80FF1F08B562B600F02AFD00F080FA124800F03B
:4001800017FC00F005FC00F0E1FB00F0CDFB00F095FB00F081FBFA2000F092FA00F0DCFAFA2000F0FBFA00F045FB084CA07800F08DFA207900F0F8FA002000F099FB00201E
:4001C00000F04EFBFEE700BF85000000CC80FF1FFEE700BFF0B40022174611E050F82760F3B226F0FF0608E001EB420511F812406D78A5550132013BDBB2002BF4D1013773
:400200002A2FEBD9F0BC704708B50A46002100F032FD08BD38B501222B4B1A8018232B4A13700E2102321180023213701721023211800232137045F6BF5102321180023236
:4002400013700222224B1A7008224FF040231A70032103F5007319701E4B1B78DBB21E490B701E4B1A8041F25122023B1A80002419250CE01A4B1B7803F0010343EA4404D5
:4002800004F003044FF4F07000F0AEFC013D0DB1032CEFD115B90320FFF79AFF114B4FF480721A8007221A7000220F490A704820023108701A700222033B1A700B4A137860
:4002C00043F00F03137038BD80400040824000400043004008010049A146004022420040254200400440004006400040A2430040F8B5174B1B78DBB2164E3478E4B2164F8F
:400300003D78EDB203F00701144A11701B090132137044F00303337045F003033B700A200F4B1870E02220331A7040230D4A137002321370AE220C4B1A70202203331A7060
:4003400000F038F93D7034704422084B1A70F8BDCF010049F8460040F94600406E5800400D51004001590040205B00407658004008B500F075FC08BD38B572B6364A1378F3
:4003800043F00403137000240CE0344D630019194A0011462A44084691882858FFF734FF0134E4B2062CF0D92D494FF09040FFF711FF04212B48FFF727FF04222A492B482A
:4003C000FFF7D6FF2A4A2B4B1A602B4A137843F0020313701032137843F002031370274C237843F040032370A2F58632513A137843F010031370082221492248FFF7B8FF9B
:40040000082221492148FFF7B3FF082220492148FFF7AEFF082220492048FFF7A9FF08221F492048FFF7A4FF1F4A137843F0080313701E4D61232B70FFF7ECFE81232B70EE
:4004400001221B4B1A70FFF753FF0E2221461948FFF78EFF38BD00BFE84600408C0C0000AC00004800760040100C00480876004004040484D816014003500140A0430040AA
:40048000E80B004802510040F00B0048C2510040F80B0048F2510040000C004812510040080C004822510040224300400048004004000840B043004008B500F0A5FB0368A0
:4004C0000C2B00D1FEE7FEE708B5104E104D16E029686B68AC68002204E051F8040B43F8040B0432A242F8D1E868002203E0002143F8041B04328242F9D11035013E002E73
:40050000E6D100F087FBFFF733FEFEE701000000DC0C000008B5114A114B1A60114A136843F40073136000230AE0032B03D80E4A52F8231000E00D490D4A42F823100133A3
:400540002F2BF2D90B4B1A780B4B1A70084A0B4B1A60FFF711FF00F013F808BD0004FA050CED00E014ED00E000000000B90400000080FF1FBC760040C080FF1F08ED00E0E9
:400580000B4A7F2313708021517007E0DA0002F1804202F5F042013BDBB21370002BF5D1DB0003F1804303F5F04300221A707047D480FF1F08B5034B1B7A00FB03F000F073
:4005C00013FB08BDDC80FF1F084A137843F0040313701032137843F00403137002F66532137843F001031370704700BFA3430040014B1870704700BF1B4F0040014B188042
:40060000704700BF1C4F0040014B1880704700BF1E4F004008B5164A137803F0010313700232137803F0FC031370124B1A7802F0CF021A701A7842F030021A701A7802F0FC
:40064000F0021A701A7842F00F021A700A4A137843F00103137040F2E730FFF7CFFF40F2E730FFF7D1FF0820FFF7C2FF08BD00BF184F0040234F0040194F004008B5054B79
:400680001B7823B9FFF7C6FF0122024B1A70FFF79BFF08BD6C81FF1F084A137843F0010313701032137843F00103137002F64D32137843F001031370704700BFA343004040
:4006C000014B1880704700BF044F0040014B1880704700BF064F0040014B1870704700BF034F004008B5194A137843F0020313700232137803F08F0343F010031370144B70
:400700001A7802F0CF021A701A7842F030021A701A7802F0F0021A701A7842F00F021A70FA20FFF7CDFF0A20FFF7D0FF0020FFF7D3FF084A137843F00103137002F65E3229
:40074000137843F00103137008BD00BF004F00400B4F0040A343004008B5054B1B7823B9FFF7C0FF0122024B1A70FFF795FF08BD6D81FF1F084A137843F002031370103201
:40078000137843F00203137002F65932137843F001031370704700BFA3430040014B1880704700BF104F0040014B1880704700BF124F0040014B1870704700BF0F4F0040B3
:4007C00008B5194A137843F0020313700232137803F08F0343F010031370144B1A7802F0CF021A701A7842F030021A701A7802F0F0021A701A7842F00F021A70FA20FFF759
:40080000CDFF5020FFF7D0FF0020FFF7D3FF084A137843F00203137002F66A32137843F00103137008BD00BF0C4F0040174F0040A343004008B5054B1B7823B9FFF7C0FF42
:400840000122024B1A70FFF795FF08BD6E81FF1F08B500F0D5F8A0F5004000B208BD00BF08B5002803DB80B280F4004002E0A0F5004080B200F0BEF808BD00BF024B187804
:4008800000F00F00704700BF66640040014B1870704700BF8664004008B50F20FFF7F6FFFFF7ECFF00F0A8F9034A137843F01003137000F0A5F908BD9664004008B500F021
:4008C000F1F84FF4004000F095F8044B1B7813B90122024B1A70FFF7DFFF08BD6F81FF1F08B500F007F9A0F5004000B208BD00BF08B5002803DB80B280F4004002E0A0F5E8
:40090000004080B200F0F0F808BD00BF024B187800F00F00704700BF63640040014B1870704700BF8364004008B50F20FFF7F6FFFFF7ECFF00F060F9034A137843F0100300
:40094000137000F05DF908BD9364004008B500F023F94FF4004000F0C7F8044B1B7813B90122024B1A70FFF7DFFF08BD7081FF1F024B1B68C3F88C00704700BF08ED00E005
:400980004001C0B2014B1870704700BF13E400E04FF40022014B1A60704700BF00E100E04FF40022014B1A60704700BF80E100E010B50446FFF7F4FF2046FFF7D9FF0720CC
:4009C000FFF7DEFFFFF7E4FF10BD00BF024A137843F080031370704775650040014B1870704700BF87650040014B1878704700BF67650040014B1880704700BF0C6A0040FA
:400A0000024B1B78024B188880B27047066500408C6A0040014B188880B270478C6A0040014B1880704700BF4C6A0040014B1880704700BF6C6A004008B501E0FFF7EAFFD7
:400A4000FFF7D2FF10F0400FF8D108BD08B5134B1A7802F0F8021A701A7802F0FC021A70FFF7EAFF4FF40040FFF7DAFF4FF40040FFF7C0FF0020FFF7B1FFFFF7B5FF4FF487
:400A80000040FFF7D3FF00F0B7F8054A137843F01003137000F0B4F808BD00BF756500409765004008B5054B1B7823B9FFF7CEFF0122024B1A70FFF789FF08BD7181FF1FEA
:400AC000024A137843F080031370704772640040014B1870704700BF84640040014B1878704700BF64640040014B1880704700BF00680040024B1B78024B188880B2704795
:400B00000064004080680040014B188880B2704780680040014B1880704700BF40680040014B1880704700BF6068004008B501E0FFF7EAFFFFF7D2FF10F0400FF8D108BD27
:400B400008B5134B1A7802F0F8021A701A7802F0FC021A70FFF7EAFF4FF40040FFF7DAFF4FF40040FFF7C0FF0020FFF7B1FFFFF7B5FF4FF40040FFF7D3FF00F03DF8054AAE
:400B8000137843F01003137000F03AF808BD00BF726400409464004008B5054B1B7823B9FFF7CEFF0122024B1A70FFF789FF08BD7281FF1F044A137803F0FD03400000F064
:400BC000020018431070704720510040054A137843F0080313701032137843F008031370704700BFA24300400230800803D000BF01380046FCD17047EFF3108072B670474C
:400C000080F31088704700BF014B1868704700BF4C81FF1F0E4B70B51E460E4C0025E41AA410A54204D056F8253098470135F8E700F042F8084B094C1E46E41AA410002594
:400C4000A54204D056F8253098470135F8E770BDC40C0000C40C0000C40C0000CC0C000010B5431E0A44914204D011F8014B03F8014FF8E710BD03460244934202D003F815
:400C8000011BFAE77047000000000000004F0040240030510040400000000140001000140140000800400140000A004C014000020050014020004300F8B500BFF8BC08BC2C
:400CC0009E4670474D00000015050000F8B500BFF8BC08BC9E46704729000000F00C0000C880FF1F880000003000000000000000000000000A005000500000007F80000087
:400D0000030000000000E02EC05D00001800000000366E010000000000000000000000000000000000000000000000000000000000000000B60C0000000000000000000006
:400D400000000000000000000000000000000000000000000000000000000000000000000000000000000000000000000000000000000000EC80FF1F0000000000000000E9
:400D80000000000000000000000000000000000000000000000000000000000000000000000000000000000000000000000000000000000000000000000000000000000033
:400DC00000000000000000000000000000000000000000000000000000000000000000000000000000000000000000000000000000000000000000000000000000000000F3
:400E000000000000000000000000000000000000000000000000000000000000000000000000000000000000000000000000000000000000000000000000000000000000B2
:400E40000000000000000000000000000000000000000000000000000000000000000000000000000000000000000000000000000000000000000000000000000000000072
:020000040003F7
:0200000480007A
:40000000064F004006520040015B00400464004001650040410001403501014038020140420301403A040140470501402F06014042070140380801404B090140310A014011
:40004000470B0140290C0140390D0140160E01402E0F0140471401404315014051160140491701402D1801403E190140041A01400C1B01400B400140104101400542014004
:40008000094301400244014009450140094601400447014007480140034901400B4C0140074D01400A5001400251014001200A360D20161B19302227010810C011806010DD
:4000C000611079102784830F846F860F8D04876F01011D012D01350139203F104062410549FF4AFF4BFF4DA04F015018580459045A045C115F016040628064406540668091
:4001000068406A806C406D206E8085018F01910195019901A101AB01B301C023C105C532C6E4C72CC83FC9FFCAFFCBFFCDAFCE07CF01D018D804D904DA04DC11DF01E04000
:40014000E280E440E540E680E840EA80EC40ED20EE80000801040318051208090C010F0410401220134414021620171020042308241029502B402D022F483001326033086E
:400180003401362439043A013B803C483FC040044520470848024B204C424E505641571480188110820484028740C056C25CC4EDCAADCCEFCE5BD064D21CE60601010501CD
:4001C0000F0111011201140117011D0122012B01330134013E105280580459045B045C115F018001810C8301840A850B870489088B018C108F1090109320950C960197020B
:40020000980C9B0F9C069D20A00CA720AC01AD07B120B210B30FB401B60EB710B888BE10BF01D40FD804D904DB04DF01000402810440062807400A9A0D010E200F0210023C
:4002400011011409168019541A121D201F10202022842380250829442E202F0830023284331034093740380439013A403B103C403E083F0259195B8076808404854C8608C5
:400280008D0890C092A0972098089A419C419D429E20A314A406A520A620A708C0FDC2BFC4D9CA2ACCDFCEDFD60FE201E448E61200300102020C043C0502082809020A14EC
:4002C0000E020F01140115021B021C1C1D082310241425012628280C2A302B042E012F08310632023310343C3501360137083E403F50540F580459045B045F059101920458
:40030000930299029B01A202A501A601A706AD01AF02B001B202B303B404B704BB08D804D904DF0100640101084009080A020E80110812011310150A180419041A011EE0F1
:400340001F2020802109224023082504273229242A412E402F2032843310372238C439013B105AA15B08632878408B4090809108922A94049503971098019A419D019F10B4
:40038000A010A280A314A402A610A708AA20AB40AC41AD02AF01B010C00FC215C437CA5FCCAECE0FD60FD806DE08E410E601EA02EE090014040108080C080F0112081404E1
:4003C000170118011D011E022201241428012C013010310132083403360438823E443F01540F580459045B045C105F0184FE860188C58A3A8E01949696689C7FA0A3A25CD0
:40040000A80EAAF0B4FFBE10D804D904DC10DF0100A4040A0580070809040A020E610F08108013101611172119201C021D901E50278028012F59322433403401358036209C
:4004400037083BA23D103E40400143805C015D085E105F808140871089108A048F019004920293809501971098019D20A050A104A220AC02AF20B404B501B620B708C0F717
:40048000C2F5C4FACAF8CCFECE3DD6F0E410E606E802EA0800C00230043006C008F00C071008120114A0165018501AA01C0C1E022070240C26012A0F2C0B2E0434F0360F16
:4004C0005608580459045B045C105D905F018208840188208E0190109101964098049E02A210A303A604AA20AC08B003B102B47CB501B820BE10D401D804D90CDB0CDC195F
:40050000DD10DF0100480112040605100602083009080AC00B020C010E220F0411011214134014441621184019211B101D101E061F402008210229012C102E5031123310C0
:40054000352037013D103F404640470158805A305D80670279408204874088A48E10915192A093409780982199829A779C80A108A204A609A710AC01AF02B520B601B75037
:40058000C0FFC2FFC4FFCA71CCA1CE30D618D810DE08E2C0E410EA10EC4000010302070123042801310432013501370238083E0452035302580459045B045C115D105F0127
:4005C00081738207899E8A108B608C078DFD8F029004913093C994019594960297609E04A1CFA330A608A801AA02AC07AF0FB00FB410B5FFBF10D804D904DF0101280340C2
:40060000050106010704080209800A200B400C010E020F1010481240130414081602170819041D011E081F0221D0224023442708280229122B102F4230403210342935107A
:40064000360839B13A043E223F92680869406A1080808A408F449101922093109560969097449820998A9A549D24A108A301AA40AB02AC20AD10B330C0DEC2BDC4EECA9FC4
:40068000CCCCCEBFE410E680EC80580459045C115F01810485088A038B088F029003918093409402952096019710980399109B209F04A003A102A401A602A701A901AC03D0
:4006C000AD40AF80B201B3FFB402BF04D602D739D804D904DB0CDC01DD10DF0101300528064008200AA00F441240134417121B2421082820291A2A522B022F82300A31017A
:40070000325033903508371039253A843B403D103F445A106104680A690571107202794087418D808F0492209510974498209A409D119E809F02A408C072C25EC45DCA9F0B
:40074000CC6FCE7FD604D802DE08E201E44010011401170418011B022001230124012A012C013101330234013504580459045C115F01D804D904DC11DF010680070408217C
:400780000A200C010F241110124013441502164017081B20210522102388280129012A202B142E802F043008311033803401378A39023A803B0C3D103F2840204104422065
:4007C00043048210838085018B20C050C27EC43FCA3FCCDECE6B00FD0110020203600501070209200B100CCF0D100E300FA0109E111012601320147317041B071D04203057
:40080000210122C92302260F270829072C942D072E60314032FF3330350F37803B083E04580459045F01821085028608870C8A108C039104930294069502970498059B0140
:40084000A006A410AD02AF04B008B207B308B410B501B706B808BB80BE10D280D804D904DB04DF01008003800550076009090C080F0812811308170619081D281E201F023A
:400880002028221123192688272529482A012B042F0230083291351036083701380839403B113E08774084108540861090089140971099109A099B029F09A048A101A38492
:4008C000A404A520A610A804A901AA01AB02AC48AE80AF20C0F9C26CC43DCA1FCCEFCE4FE008E680EA06EC20EE0100A3025C0A010CC50E3A147F18FE1A01209622682C0EF1
:400900002EF036FF3E404021410349FF4AFF4BFF4DA04F015018580459045A045C105F016040628064406540668068406A806C406D206E80830386028B088D0899019F0401
:40094000A201AD04B002B101B308B502B601B704BF45C025C106C54CC630C72EC83BC9FFCAFFCBFFCDAFCE07CF01D018D40FD804D904DA04DB04DF05E040E280E440E540C0
:40098000E680E840EA80EC40ED20EE8002100510068007020E200F08108016011701188019801E01225529802F59308032103401362038823A103D10412045A047084885B6
:4009C0004B0450015108521058205A8A610863047A108B018C218E08915093A2940A96019710980199109D809E119F29A001A180A220A38CA610AB48AC80AD01B108B2109E
:400A0000B784C0D4C260C498CAF8CCACCE2DD074D20CD60FD806DE02E440EA08EE01000C0201040B052C0604071008280A110C100E200F0111301308140C1602173C1A0F45
:400A40001B401E402007211C2410252026202704281029302A202B042F0230403102320F334034303501373C3A20580459045F01D804D904DC11DF01012002400442051019
:400A800007100AA00E200F06101011101340144017281C441D101E281F08240225402620276A281029202A402C602D802F0832503624370239103B403C403E0488208B0585
:400AC0008F40911092A4934094069704985099209A409B109C04A618AA40AF40B040B510C0FAC2ECC477CAFECCECCE5CE210E460E880EA4039083F0459045F012020840418
:400B0000860888109C04A608A804AB08AD40B580E680EC20110816803260362038013E808004C430CC30CE60E68009200D4050045B20800185208D048F20900894019680CA
:400B4000A104C2C0D4A0E010E28082408D4091809680E68018801F026504678071048C40C630D880DC808A02E00158086540660280408C089A02D603D801E002188025015C
:400B80008D019480B140C608C801E208E80144018E10D004E408208067808F029780A302C840D8808B409780B04008200C80721088208E2092109C01C203DC01E201E40259
:400BC00076209A20B001B480DE04EC04EE020003010108030A030C030D010E0210031A031C03000F100A0000C0000000000A0A000030300030000000003030003000000048
:400C0000C00B0B00000000000002020000E0E00000010000000000000000000000000000000000000000000000000000000000000000000000000000000000000000000019
:400C40000000000000000000000000000000000000000000000000000000000000000000000000000000000000000000000000000000000000000000000000000000000074
:400C80000000000000000000000000000000000000000000000000000000000000000000000000000000000000000000000000000000000000000000000000000000000034
:400CC00000000000000000000000000000000000000000000000000000000000000000000000000000000000000000000000000000000000000000000000000000000000F4
:400D000000000000000000000000000000000000000000000000000000000000000000000000000000000000000000000000000000000000000000000000000000000000B3
:0200000490006A
:0400000000004005B7
:0200000490105A
:04000000BC90ACAF55
:0200000490303A
:020000003F318E
:0200000490402A
:4000000000000000000000000000000000000000000000000000000000000000000000000000000000000000000000000000000000000000000000000000000000000000C0
:400040000000000000000000000000000000000000000000000000000000000000000000000000000000000000000000000000000000000000000000000000000000000080
:400080000000000000000000000000000000000000000000000000000000000000000000000000000000000000000000000000000000000000000000000000000000000040
:4000C0000000000000000000000000000000000000000000000000000000000000000000000000000000000000000000000000000000000000000000000000000000000000
:0200000490501A
:0C00000000012E16106900012E1E4F9A00
:00000001FF