:400000000080002011000000E1050000E105000008B5044B1A6803F53F5302331A6000F0FFFA00BFFA46004010B5054C237833B9044B13B10448AFF300800123237010BDB2
:400040005081FF1F00000000081A0000084B10B51BB108490848AFF300800848036803B910BD074B002BFBD0BDE81040184700BF000000005481FF1F081A0000C880FF1FAE
:4000800000000000074B1B78DBB2042B03D10022044B1A707047034A13780133DBB21370704700BF6C81FF1F0122014B5A7070476C81FF1F30B59BB062B67B4800F028FC62
:4000C0007A4800F07BFF00F059FF00F01BFD00F02DFD002303E00121754AD1540B44042BF9DD00F07DFC002000F024FD714C207800F02CFD704B188000F036FD82B26F4D9C
:400100002A806F4901A801F05BF801A800F0B8FF642000F0C3FB237804EB4304A2882B889A4204D2634A117802EB41029380614B5B78DBB2012B53D108E05E4B03EB4203F5
:400140009988198200219980013200E00022042AF3DD584B9B7E012B08D1554B1B7813B90322544B9A7600F0B9F836E0032B08D14F4B5B7813B905224E4B9A7600F0A2F871
:400180002BE0052B08D14A4B1B7913B90022494B9A7600F0ADF820E0FBB9454B1B7813B900F09CF819E0424A527812B900F0A0F813E0012B0FD1012A0DD13D4B9B7853B963
:4001C0003B4BDB783BB900F09DF80122394B9A7600F084F801E000F075F80022354B5A70344B1A7803EB42031B8AB3F5487F2DD3304B1B7813F0FF0F03D101222C4B1A7071
:4002000071E72C4B1B78DBB2012B03D10122284B5A7068E7274B1B78DBB2022B03D10122234B9A705FE7234B1B78DBB2032B03D101221F4BDA7056E71E4B1B78DBB2042B50
:400240007FF451AF01221A4B1A714CE7194B1B7813F0FF0F03D10022154B1A7043E7154B1B78DBB2012B03D10022114B5A703AE7104B1B78DBB2022B03D100220C4B9A70CB
:4002800031E70C4B1B78DBB2032B03D10022084BDA7028E7074B1B78DBB2042B7FF423AF0022034B1A711EE785000000A9000000B481FF1F6C81FF1FBC81FF1FBA81FF1FB9
:4002C0000C1A000008B500F0B5FC532000F06CFC00F01EFD5A2000F0D5FC08BD08B5282000F062FC00F014FD5A2000F0CBFC08BD08B5282000F0C6FC00F09CFC532000F0B8
:4003000053FC08BD08B5282000F04EFC282000F0B9FC08BDFEE700BFF0B40022174611E050F82760F3B226F0FF0608E001EB420511F812406D78A5550132013BDBB2002BF5
:40034000F4D10137222FEBD9F0BC704708B50A46002100F02CFF08BD38B51722284B1A80182328490B700E200231088002310B7002310A80244A13700622244B1A705222C6
:40038000A3F580731A70224B1B78DBB2214A13704FF4E162204B1A8041F25122023B1A80002419250CE01D4B1B7803F0010343EA440404F003044FF4F07000F0B1FE013D75
:4003C0000DB1032CEFD115B90320FFF7A3FF144A4FF48073138007231370002311490B7048200231087013700532137002220E4B1A700E4A137843F00703137038BD00BF4D
:4004000080400040824000408A400040004300400F010049A14600402242004025420040044000400640004001400040A2430040F8B5174B1B78DBB2164E3478E4B2164F78
:400440003D78EDB203F00701144A11701B090132137044F00303337045F003033B700A200F4B1870E02220331A7040230D4A137002321370AE220C4B1A70202203331A701F
:4004800000F022FA3D7034704422084B1A70F8BDCF010049F8460040F94600406E5800400D51004001590040205B00407658004008B500F071FE08BD38B572B6334A1378CC
:4004C00043F00403137000240CE0314D630019194A0011462A44084691882858FFF736FF0134E4B2062CF0D92A494FF09040FFF713FF04212848FFF729FF042227492848F2
:40050000FFF7D6FF274A137843F0020313701032137843F002031370234C237843F040032370A2F58632513A137843F01003137008221E491E48FFF7BBFF08221D491E48D3
:40054000FFF7B6FF0A221D491D48FFF7B1FF08221C491D48FFF7ACFF08221C491C48FFF7A7FF1C4A137843F0080313701A4D61232B70FFF7F1FE81232B70FFF759FF0E2235
:4005800021461648FFF794FF38BD00BFE8460040141A00008C00004800760040440500480876004003500140A0430040180500480251004020050048C251004028050048E0
:4005C000F051004034050048125100403C050048225100402243004000480040B043004008B500F0ADFD03680C2B00D1FEE7FEE708B5094B1A681044084BC31A802B02DC86
:40060000054B186005E000F09BFD0C2303604FF0FF32104608BD00BFCC80FF1F9082FF1F08B5104E104D16E029686B68AC68002204E051F8040B43F8040B0432A242F8D19E
:40064000E868002203E0002143F8041B04328242F9D11035013E002EE6D100F077FDFFF729FDFEE701000000981A000008B5114A114B1A60114A136843F400731360002361
:400680000AE0032B03D80E4A52F8231000E00D490D4A42F8231001332F2BF2D90B4B1A780B4B1A70084A0B4B1A60FFF705FF00F013F808BD0004FA050CED00E014ED00E0BE
:4006C00000000000E10500000080FF1FBC760040C080FF1F08ED00E00B4A7F2313708021517007E0DA0002F1804202F5F042013BDBB21370002BF5D1DB0003F1804303F58F
:40070000F04300221A707047D080FF1F172815D831B103010A495A5C42F020025A5405E0030107495A5C02F0DF025A540001044A835C43F00103835400207047012070473D
:400740001070004017280CD80001074BC1180A7942F004020A71C25C42F00102C254002070470120704700BF1070004017280BD80001064A835C03F0F103490001F00E011B
:400780001943815400207047012070471070004041F6FF73994201D14FF4005141F6FF739A4201D14FF40052172808D8C00000F1804000F5EC408180C280002070470120D7
:4007C000704700BF172805D8034B03EB0010417200207047012070471070004017281BD810B4C00000F1804404F5EC44D201D2B201F07F01114321709DF804201201D2B268
:4008000003F00F03134363709DF8083003F00F03A3700020E07001E00120704710BC704710B500F085FC0A4B5B78182B0BD9084A1478013B5370E30003F1804303F5F043D2
:400840001B78137000E0FF2400F076FC204610BDD080FF1F10F0800F0CD111F4704F0BD1C00000F1804000F5F04001808270C37000207047012070470120704710F0800FFE
:4008800008D1C00000F1804000F5F0408180C280002070470120704701BE704710B5044605E0084B186800F03BFCA4F50044B4F5004FF6D8034B586800FB04F000F030FCB7
:4008C00010BD00BFD880FF1F08B5034B1B7A00FB03F000F025FC08BDD880FF1F014B1B681865704708ED00E04001C0B2014B1870704700BF04E400E01022014B1A607047D0
:4009000000E100E01022014B1A60704780E100E010B50446FFF7F6FF2046FFF7DFFF0720FFF7E2FFFFF7E8FF10BD00BF084A137843F0040313701032137843F00403137047
:4009400002F66532137843F001031370704700BFA3430040014B1870704700BF1B4F0040014B1880704700BF1C4F0040014B1880704700BF1E4F004008B5164A137803F06C
:40098000010313700232137803F0FC031370124B1A7802F0CF021A701A7842F030021A701A7802F0F0021A701A7842F00F021A700A4A137843F00103137042F20F70FFF71F
:4009C000CFFF42F20F70FFF7D1FF0820FFF7C2FF08BD00BF184F0040234F0040194F004008B5054B1B7823B9FFF7C6FF0122024B1A70FFF79BFF08BD9081FF1F10B541F69B
:400A0000FF734FF480420121022000F06DFA084C207041F6FF731A4601210A2000F082FA6070044800F09CFA002000F09FFA10BD9481FF1F710B000070B52C4C2078FFF70D
:400A400081FE6078FFF77EFE294B1B78FF2B03D1FFF7E6FE264B1870254D2878062302460A21FFF7F7FE214E341DA4B2224645F6A0312878FFF702FF29783078FFF7A2FE3C
:400A80006B78FF2B02D1FFF7CBFE6870184D6878072302460A21FFF7DDFE164A92B221466878FFF7EBFE114C69786078FFF78AFE01212078FFF72AFE01216078FFF726FEC2
:400AC00000F036FB0C4A137843F02003137000F033FB0A4B1A7842F001021A701A7842F002021A700122064B1A6070BD9481FF1FE880FF1FC081FF1F97640040786500407A
:400B000080E200E008B5074B1B6923B9FFF776FF0122044B1A6100F0A5F9FFF78DFF024B1B7808BD9481FF1F6765004008B500F0A7F908BD044B1B7803F0FF020BB90028E4
:400B4000F8D01046704700BF67650040C0F10400034B33F91030034A1088181A00B27047C081FF1FD481FF1F08B500F091F908BD704700BF084A137843F0010313701032C9
:400B8000137843F00103137002F64D32137843F001031370704700BFA3430040014B1880704700BF044F0040014B1880704700BF064F0040014B1870704700BF034F0040E0
:400BC00008B5194A137843F0020313700232137803F08F0343F010031370144B1A7802F0CF021A701A7842F030021A701A7802F0F0021A701A7842F00F021A70FA20FFF755
:400C0000CDFF5020FFF7D0FF0020FFF7D3FF084A137843F00103137002F65E32137843F00103137008BD00BF004F00400B4F0040A343004008B5054B1B7823B9FFF7C0FF63
:400C40000122024B1A70FFF795FF08BDA881FF1F084A137843F0020313701032137843F00203137002F65932137843F001031370704700BFA3430040014B1880704700BF06
:400C8000104F0040014B1880704700BF124F0040014B1870704700BF0F4F004008B5194A137843F0020313700232137803F08F0343F010031370144B1A7802F0CF021A7001
:400CC0001A7842F030021A701A7802F0F0021A701A7842F00F021A70FA20FFF7CDFF5020FFF7D0FF0020FFF7D3FF084A137843F00203137002F66A32137843F001031370AB
:400D000008BD00BF0C4F0040174F0040A343004008B5054B1B7823B9FFF7C0FF0122024B1A70FFF795FF08BDA981FF1F08B50A280FD00C2802D0082806D102E04FF4805234
:400D400009E04FF4807206E00020FFF7A5FD002201E04FF480620021094B198042F2107303FB02F303F6C413064A82FB0302DB17C3EBE223044A1360044B198008BD00BF63
:400D8000CC81FF1FAD8BDB68D081FF1FD481FF1F10B500F0CDF90446184A137843F0010313701032137843F00103137002F5AA520832137843F0030313701822104B1A70E5
:400DC000013B1A7842F040021A701A7802F0FC021A70C822053B1A700222A3F597530C3B1A70084A137843F0080313700A20FFF76BFD204600F0A0F910BD00BFAB43004021
:400E000006590040275B004010B504460A280DD00C2802D0082804D101E0C22207E0422205E00020FFF738FDC22200E08222034B1A702046FFF77AFF10BD00BF02590040AC
:400E400008B5064A137843F0060313700C20FFF7DBFF0022024B1A8008BD00BF01590040CE81FF1F08B5054B1B7823B9FFF7E8FF0122024B1A70FFF78BFF08BDAA81FF1FAA
:400E8000024A137843F00103137070470059004010B4124B1B881BB233B1104B1B881BB203EB83035C0001E00D4B1C680D4B1988411A09B242F2107303FB01F2002903DDC4
:400EC00004EBD470401003E004EBD47040104042831893FBF4F000B210BC7047CC81FF1FD081FF1FCE81FF1FF0B583B016461F460B4C012525700023019300932B460A4648
:400F000001462846FFF76AFC3A4631462078FFF73FFC02212078FFF729FC207803B0F0BDEA80FF1FF0B583B016461F460B4D00242C700194009423460A4601462046FFF754
:400F40004DFC3A4631462878FFF722FC02212878FFF70CFC287803B0F0BD00BFEB80FF1F014B1B681864704708ED00E04001C0B2014B1870704700BF00E400E00122014B6D
:400F80001A60704700E100E0014B1B685865704708ED00E04001C0B2014B1870704700BF05E400E02022014B1A60704700E100E02022014B1A60704780E100E010B50446D2
:400FC000FFF7F6FF2046FFF7DFFF0720FFF7E2FFFFF7E8FF10BD00BF431EDBB2072B3CD8F0B4074600EB4004A3001C4C2344DB889BB2C3F500739A4208D900EB4002930047
:401000002344DA8892B2C2F5007292B200EB4004A300124C2344DB7843EA1223104D04012E192B55D3B2737039B909E0CE5C3D010C4C665501339BB200E000239A42F5D8D6
:40104000420002449300054A134400225A705A79D2B20001044B1A54F0BC70471482FF1FFC5F004078600040FE5F00400246002001E0013080B2135C002BFAD1704700BFC0
:401080002DE9F8438046234B1B78234AD65CF6B2FFF7ECFF05460027344606EB460293001E4A13441B899BB29D4209D906EB460293001A4A1344B3F808901FFA89F900E082
:4010C000A9464A4608EB07013046FFF785FFC9EB0505ADB245B906EB460293000F4A13441B899BB2994510D14F44BFB204EB440293000A4A13445B7813F0FF0FF6D025B940
:40110000002211463046FFF767FF002DC4D1BDE8F88300BFAB81FF1FD881FF1F1482FF1F0230800803D000BF01380046FCD17047EFF3108072B6704780F31088704700BF2D
:40114000014B1868704700BF4C81FF1F0E4B70B51E460E4C0025E41AA410A54204D056F8253098470135F8E700F084FC084B094C1E46E41AA4100025A54204D056F825302C
:4011800098470135F8E770BD801A0000801A0000801A0000881A000010B5431E0A44914204D011F8014B03F8014FF8E710BD03460244934202D003F8011BFAE77047000052
:4011C0000EB400B54FF402719CB0ADF814106FF00041049107914FF6FF711DAB02900690084853F8042BADF81610006802A9019300F064F8029B00221A701CB05DF804EB5A
:4012000003B070474C81FF1F2DE9F0478E6882469E420C46914698463ED88A8912F4906F3AD02568096902236F1A656905EB450595FBF3F57B1C43449D4238BF1D46530553
:401240000FD5294600F040FB064698B13A462169FFF7A2FFA38923F4906343F08003A38113E02A4600F08EFB064670B92169504600F0DEFA0C23CAF80030A3894FF0FF30B6
:4012800043F04003A381BDE8F08726613E44266046466561ED1BA560464528BF464649463246206800F0A8FAA36800209B1BA36023681E442660BDE8F08700002DE9F04FA3
:4012C0009DB003938B8980461C060D4616460DD50B695BB9402100F0F7FA2860286118B90C23C8F80030CDE040236B610023099320238DF82930DFF89CB130238DF82A30A1
:4013000037463C4614F8013B1BB9B7EB060910D003E0252BF9D02746F3E74B46324629464046FFF771FF013000F0A780099B4B4409933B78002B00F0A08000234FF0FF32C2
:4013400004930793059206938DF853301A930126052221784E4800F041FA671C049B38B14B4A3C46801A06FA00F018430490EFE7D90644BF20228DF853201A0744BF2B22B1
:401380008DF8532022782A2A03D0079A00210A200BE0039A111D12680391002A10DA524243F00200079204900BE027463B780134303B092B03D800FB02320121F5E701B121
:4013C00007923B782E2B1ED17B782A2B0AD1039B02371A1D1B680392002BB8BF4FF0FF33059310E0002319460593781C0A2407463A780130303A092A03D804FB01210123AC
:40140000F5E703B1059103223978224800F0E6F940B14023CBEB000003FA00F0049B013718430490397806221B487E1C8DF8281000F0D4F988B1194B33B9039B073323F0F6
:4014400007030833039314E003AB00932A46144B04A94046AFF3008007E003AB00932A460F4B04A9404600F093F8B0F1FF3F824603D0099B5344099342E7AB895B0601D4B4
:40148000099801E04FF0FF301DB0BDE8F08F00BF401A0000461A00004A1A000000000000091200002DE9F04791461F460A698B6806469342B8BF1346C9F8003091F8432096
:4014C0000C46DDF8208012B10133C9F800302368990642BFD9F800300233C9F80030256815F0060510D104F1190A07E00123524639463046C04701301AD00135E368D9F849
:4015000000209B1A9D42F1DB94F843302268003318BF012392060FD5E118302081F843005A1C94F845102244023382F8431003E04FF0FF30BDE8F08704F143023946304698
:40154000C0470130F4D02268D9F80050E36802F00602042A08BF5D1B2269A3680CBF25EAE57500259342C4BF9B1AED184FF000091A344D4509D00123224639463046C04788
:401580000130D5D009F10109F3E70020BDE8F0872DE9F04317460A7E85B06E2A984606460C460C9B01F1430E00F0AE8011D8632A22D009D8002A00F0BB80582A40F0CA8022
:4015C00081F84520834955E0642A1ED0692A1CD0C0E0732A00F0B08009D86F2A2ED0702A40F0B8800A6842F020020A603EE0752A24D0782A3AD0ADE01A6801F14205111D37
:401600001960136884F84230A8E021681A6811F0800F02D0111D196008E011F0400F02F10401196002D0B2F9003000E01368002B3CDA2D225B4284F8432037E021681A684D
:4016400011F0800F02D0111D196007E011F0400F02F10401196001D0138800E01368227E5C496F2A14BF0A2208221BE078225A4984F845202268186812F0800F00F104053D
:401680001D6003D1550601D5038800E00368D00744BF42F0200222601BB9226822F0200222601022002084F8430001E049490A226568002DA56008DB206820F00400206060
:4016C0002BB9002D7DD175460CE0002B79D07546B3FBF2F002FB1033CB5C05F8013D03460028F5D1082A0BD12368DA0708D5236962689A42DEBF302305F8013C05F1FF356F
:40170000C5EB0E0323612EE008681A6810F0800F496903D0101D1860136808E010F0400F02F104001860136801D0198000E0196000232361754616E01A68111D196015684E
:4017400000216268284600F049F808B1401B6060636804E004F1420584F8422001232361002384F84330CDF800803B4603AA21463046FFF797FE013002D14FF0FF3026E035
:4017800023692A4639463046C0470130F5D023689B0710D5002504F1190907E001234A4639463046C0470130E7D00135E368039A9B1A9D42F2DBE068039B9842B8BF18465A
:4017C00005E00B7804F1420584F842308AE705B0BDE8F083511A0000621A000010B5C9B202449042034605D01C7801308C42F8D1184610BD002010BD884210B501EB0203C8
:4018000001D8421E0BE09842FBD28118D21AD34204D013F8014D01F8014DF8E710BD994204D011F8014B02F8014FF8E710BD000038B50546002944D051F8043C0C1F002BD5
:40184000B8BFE41800F0D4F81E4A1368114613B96360146030E0A3420DD92268A018834201BF18685B681218226063600C6023E0A24203D813465A68002AF9D118681918BA
:40188000A1420BD12168014458188242196013D110685268014419605A600DE002D90C232B6009E021686018824201BF106852680918216062605C602846BDE8384000F0A3
:4018C00098B838BDB081FF1F70B5CD1C25F0030508350C2D38BF0C25002D064601DBA94202D90C23336046E000F082F8234B1C681A462146A1B10B685B1B0ED40B2B03D936
:401900000B60CC18CD501EE08C420BBF63684B681360636018BF0C4615E00C464968E9E7174C23681BB9304600F052F820602946304600F04DF8431C18D0C41C24F00304B2
:40194000A0420DD12560304600F053F804F10B00231D20F00700C31A0ED05A42E25070BD211A304600F034F80130EBD10C233360304600F03EF8002070BD00BFB081FF1FF1
:40198000AC81FF1FF8B5074615460E4621B91146BDE8F840FFF798BF1AB9FFF749FF2846F8BD00F027F885420ED929463846FFF78BFF044650B131462A46FFF7EDFB3146F3
:4019C0003846FFF735FF01E03046F8BD2046F8BD38B5064C0023054608462360FEF708FE431C02D1236803B12B6038BD8882FF1F7047704751F8040C0028BEBF091851F8B0
:401A0000043CC018043870470000000025640D0A00000000004F0040240030510040400000000140001000140140000800400140000A004C0140000200500140200043008B
:401A4000232D302B2000686C4C00656667454647003031323334353637383941424344454600303132333435363738396162636465660000F8B500BFF8BC08BC9E467047F4
:401A80004D0000006D060000F8B500BFF8BC08BC9E46704729000000A81A0000C880FF1F8800000040010000000000009082FF1F7F800000030000000000E02EC05D000070
:401AC0001800000000366E01FFFFFFFF00000000000000000000000000000000000000000000000000000000000000003E1A000000000000000000000000000000000000D5
:401B00000000000000000000000000000000000000000000000000000000000000000000000000000000000000000000EC80FF1F000000000000000000000000000000001B
:401B40000000000000000000000000000000000000000000000000000000000000000000000000000000000000000000000000000000000000000000000000000000000065
:401B80000000000000000000000000000000000000000000000000000000000000000000000000000000000000000000000000000000000000000000000000000000000025
:401BC00000000000000000000000000000000000000000000000000000000000000000000000000000000000000000000000000000000000000000000000000000000000E5
:401C000000000000000000000000000000000000000000000000000000000000000000000000000000000000000000000000000000000000000000000000000000000000A4
:020000040003F7
:0200000480007A
:4000000001450040054F004008520040015B004001640040120201402203014010040140310501402A0601404507014002090140040A0140070B0140020D01401A14014099
:400040002C1501400F1601403A170140191801401C190140041B01400C400140104101401342014009430140084501400F460140094701400B48014005490140024C014015
:40008000064D014008500140035101407E0201200A4B0D20164B224B0002010210C011806010611078107C4027848704580459045C115F01840388038C018E0292039403EB
:4000C0009C03A003B002B201D804D904DC11DF01006002100320044006100A100B410E100F4110801622188019082A202B212C842E122F603084368039803B413C203E2021
:400100003F428508C0A7C2BDC4A8CAEECC1ACEB9E20AE408130116011A0422023001320434023701580459045C115F01D804D904DC11DF01006004400A240B810F4810143B
:40014000134214501510160218401A101B252280230128042B012C042E122F60305032813320368039903A023B403C203D103F4287088C049440958096109781A410A68024
:40018000A721B440C083C25FC4FFCAECCC1DCEBDE250E402E601580459045C115F0180048104860287088A088B018C108E2090409280930495089601980199029C029F0205
:4001C000A204A408A710A820A901AA10AC80AE40B2FFB71FB980BE04BF40D602D738D804D904DB0FDC10DD10DF0100600181020C0331044005020604080409800A940B80B5
:400200000E100F40100A110612801301160117101908200221402804298A2D022E102F6031803209332036803701382039843A013B413C203F4058406020680A69056A2265
:40024000701071807204730278019040921094089580962697809F02A280A320A410A708C0DFC23FC4CFCAEFCC9FCE3FD608D802DE01E8019904E801B802BE01D804DF012B
:400280001F018D048F01E240E402E601EC10E20AE4080203040308030C010E02100314031E0334013602580459045C115F01820184018A018C01900194019C01B201D80456
:4002C000D904DC11DF010022024403510684075109810A100B400C800D800E100F4018081B401F0829202A402C802D202E903180331137113A043B403C203F409210940826
:4003000097409B119E40A011A181A748A820C0FFC2BDCABCCCADCE3AE808EC28EE04580459045C115F0187029301B302B701D401D804D904DB0FDC11DD10DF010020031121
:400340000640070109810A100D800E100F401240150817102020218422C0231028022A012E1030063180331034023680371139043A403B103C223F405B8078018380844115
:400380008F40910492109408968098049A019B119C61A003A101A410A708C097C2BDC468CA29CCBFCEBED608DE01E203E648EE02040412011D011E0223032404280130032E
:4003C000330134043603370238203E10520353025804590C5B045C195D105F01D608DB04DD9005040E800F0217241E801FA0268027202F803680584063026E206F077F022F
:400400008320861087019904C020C290C460CA80CC10D608D808DE10EE02AB20AC40E808EC2010401680308032023404364038083B103E80C430CCF0CE70332052085C10CB
:4004400084048602940898409C04A480A642AC80AF10CC10D420D620E25011105480551058085C086008800489108B208C1894189840A480A648A720C440D6C0D840E68002
:400480001A101F0296109840A510A648AA10C630E8805C0263016708850286018704D603D8011B0825015680830884028D0196019C02A502B701C608C801D402E208EC089F
:4004C0000A010B400D0244019601A502AA80C20ED004208081108E089840A302A510A608AE40C840E280EE40AC40AF02B040E810EC109C01AF4076209A20AE20B001DE045B
:40050000EC04000208020A02100211011A021C021D0100AB010B100A00000000000A0A0000303000300000004000003030003000C0000000000B0B0000000000000000001C
:4005400000E0E000000100000000000000000000000000000000000000000000000000000000000000000000000000000000000000000000000000000000000000000000BA
:40058000000000000000000000000000000000000000000000000000000000000000000000000000000000000000000000000000000000000000000000000000000000003B
:4005C00000000000000000000000000000000000000000000000000000000000000000000000000000000000000000000000000000000000000000000000000000000000FB
:4006000000000000000000000000000000000000000000000000000000000000000000000000000000000000000000000000000000000000000000000000000000000000BA
:40064000000000000000000000000000000000000000000000000000000000000000000000000000000000000000000000000000000000000000000000000000000000007A
:0200000490006A
:0400000000004005B7
:0200000490105A
:04000000BC90ACAF55
:0200000490303A
:020000005F514E
:0200000490402A
:4000000000000000000000000000000000000000000000000000000000000000000000000000000000000000000000000000000000000000000000000000000000000000C0
:400040000000000000000000000000000000000000000000000000000000000000000000000000000000000000000000000000000000000000000000000000000000000080
:400080000000000000000000000000000000000000000000000000000000000000000000000000000000000000000000000000000000000000000000000000000000000040
:4000C0000000000000000000000000000000000000000000000000000000000000000000000000000000000000000000000000000000000000000000000000000000000000
:0200000490501A
:0C00000000012E16106900012E216FBABD
:00000001FF