:400000000080002011000000B5040000B504000008B5044B1A6803F53F5302331A6000F051FA00BFFA46004010B5054C237833B9044B13B10448AFF300800123237010BDBA
:400040005081FF1F00000000100C0000084B10B51BB108490848AFF300800848036803B910BD074B002BFBD0BDE81040184700BF000000005481FF1F100C0000C880FF1FBA
:4000800000000000054B1B78042B03D10022034B1A7070470133014A137070476C81FF1F08B562B65B4800F06FFB00F0FFFB00F011FC002000F012FC574B187800F01AFCD6
:4000C000564B188000F024FC80B2554B1880B0F5487F1ED3504B1B781BB90122514B1A7035E0012B03D101224E4B5A702FE0022B03D101224B4B9A7029E0032B03D1012209
:40010000484BDA7023E0042B21D10122454B1A711DE0414B1B781BB90022424B1A7016E0012B03D100223F4B5A7010E0022B03D100223C4B9A700AE0032B03D10022394BB5
:40014000DA7004E0042B02D10022364B1A71324B5B88ABB9334B1B781BB901222E4B5A80A7E7304B5B781BB902222B4B5A80A0E72C4B1B79002B9CD10322274B5A8098E7C4
:40018000012B11D1274B9B78012BFBD0254B1B79012BFBD0234B1B78002BFBD0012BFDD000221D4B5A8084E7022B11D11D4BDB78012BFBD01B4B1B79012BFBD0194B5B7812
:4001C000002BFBD0012BFDD00022134B5A8070E7032B7FF46EAF134B1B78012B03D1114A5278012AF7D03BB90E4B1B79012BFBD00022094B5A805CE70A4B5B78002B7FF468
:4002000058AF084B1B79012BFBD00022024B5A804FE700BF850000006C81FF1F9481FF1F9281FF1F8C81FF1FFEE700BFF0B40022174611E050F82760F3B226F0FF0608E04D
:4002400001EB420511F812406D78A5550132013BDBB2002BF4D10137222FEBD9F0BC704708B50A46002100F0CAFC08BD38B50122264B1A801823264A13700E21023211808F
:40028000023213700222234B1A7008224FF040231A70032103F5007319701F4B1B78DBB21E490B701E4B1A8041F25122023B1A80002419250CE01B4B1B7803F0010343EAA6
:4002C000440404F003044FF4F07000F051FC013D0DB1032CEFD115B90320FFF7A5FF124B4FF480721A8007221A7000220F490A704820023108701A700222033B1A700C4AB3
:40030000137843F00303137038BD00BF80400040824000400043004008010049A146004022420040254200400440004006400040A2430040F8B5164B1B78DBB2154E34780D
:40034000E4B2154F3D78EDB203F00701134A11701B090132137044F00303337045F003033B701F220E4B1A7040230E4A1370023213700F220C4B1A70202203331A700A2062
:4003800000F0DEF93D7034704422084B1A70F8BDCF010049F8460040F94600406E5800402D51004001590040205B00407658004008B500F019FC08BD38B572B62D4A137852
:4003C00043F00403137000240CE02B4D630019194A0011462A44084691882858FFF740FF0134E4B2092CF0D924494FF09040FFF71DFF04212248FFF733FF042221492248F0
:40040000FFF7D6FF214A137843F0020313701032137843F0020313701D4C237843F040032370A2F58632513A137843F010031370082218491848FFF7BBFF082217491848F8
:40044000FFF7B6FF174A137843F008031370164D61232B70FFF70AFF81232B700122134B1A70FFF767FF0E2221461148FFF7A0FF38BD00BFE8460040140C00008C00004862
:4004800000760040D40400480876004003500140A0430040C404004812510040CC04004822510040224300400048004004000840B043004008B500F06BFB03680C2B00D141
:4004C000FEE7FEE708B5104E104D16E029686B68AC68002204E051F8040B43F8040B0432A242F8D1E868002203E0002143F8041B04328242F9D11035013E002EE6D100F0D4
:400500004DFBFFF7CDFDFEE701000000780C000008B5114A114B1A60114A136843F40073136000230AE0032B03D80E4A52F8231000E00D490D4A42F8231001332F2BF2D92A
:400540000B4B1A780B4B1A70084A0B4B1A60FFF733FF00F013F808BD0004FA050CED00E014ED00E000000000B50400000080FF1FBC760040C080FF1F08ED00E00B4A7F23F9
:4005800013708021517007E0DA0002F1804202F5F042013BDBB21370002BF5D1DB0003F1804303F5F04300221A707047CC80FF1F172815D831B103010A495A5C42F0200281
:4005C0005A5405E0030107495A5C02F0DF025A540001044A835C43F00103835400207047012070471070004017280CD80001074BC1180A7942F004020A71C25C42F001025A
:40060000C254002070470120704700BF1070004017280BD80001064A835C03F0F103490001F00E011943815400207047012070471070004041F6FF73994201D14FF400516A
:4006400041F6FF739A4201D14FF40052172808D8C00000F1804000F5EC408180C280002070470120704700BF172805D8034B03EB00104172002070470120704710700040A2
:4006800017281BD810B4C00000F1804404F5EC44D201D2B201F07F01114321709DF804201201D2B203F00F03134363709DF8083003F00F03A3700020E07001E0012070476D
:4006C00010BC704710B500F05BFA0A4B5B78182B0BD9084A1478013B5370E30003F1804303F5F0431B78137000E0FF2400F04CFA204610BDCC80FF1F10F0800F0CD111F41F
:40070000704F0BD1C00000F1804000F5F04001808270C37000207047012070470120704710F0800F08D1C00000F1804000F5F0408180C280002070470120704701BE7047F5
:4007400008B5034B1B7A00FB03F000F011FA08BDD480FF1F014B1B685864704708ED00E04001C0B2014B1870704700BF01E400E00222014B1A60704700E100E00222014B0E
:400780001A60704780E100E010B50446FFF7F6FF2046FFF7DFFF0720FFF7E2FFFFF7E8FF10BD00BF10B541F6FF734FF480420121022000F091F9084C207041F6FF731A460E
:4007C00001210A2000F0A6F96070044800F0C0F9002000F0C3F910BD7481FF1F1909000070B52C4C2078FFF7FFFE6078FFF7FCFE294B1B78FF2B03D1FFF764FF264B187044
:40080000254D2878062302460A21FFF775FF214E341DA4B2224645F6A0312878FFF780FF29783078FFF720FF6B78FF2B02D1FFF749FF6870184D6878072302460A21FFF7D5
:400840005BFF164A92B221466878FFF769FF114C69786078FFF708FF01212078FFF7A8FE01216078FFF7A4FE00F08AF90C4A137843F02003137000F087F90A4B1A7842F024
:4008800001021A701A7842F002021A700122064B1A6070BD7481FF1FE480FF1F9881FF1F986400407A64004080E200E008B5074B1B6923B9FFF776FF0122044B1A6100F01F
:4008C000C9F8FFF78DFF024B1B7808BD7481FF1F6B64004008B500F0CBF808BD044B1B7803F0FF020BB90028F8D01046704700BF6B640040C0F10400034B33F91030034A98
:400900001088181A00B270479881FF1FAC81FF1F08B500F0B5F808BD704700BF08B50A280FD00C2802D0082806D102E04FF4805209E04FF4807206E00020FFF7FFFE002262
:4009400001E04FF480620021094B198042F2107303FB02F303F6C413064A82FB0302DB17C3EBE223044A1360044B198008BD00BFA481FF1FAD8BDB68A881FF1FAC81FF1FF5
:4009800010B500F0FDF80446184A137843F0010313701032137843F00103137002F5AA520832137843F0030313701822104B1A70013B1A7842F040021A701A7802F0FC0234
:4009C0001A70C822053B1A700222A3F597530C3B1A70084A137843F0080313700A20FFF7AFFE204600F0D0F810BD00BFAB43004006590040275B004010B504460A280DD080
:400A00000C2802D0082804D101E0C22207E0422205E00020FFF792FEC22200E08222034B1A702046FFF77AFF10BD00BF0259004008B5064A137843F0060313700C20FFF75B
:400A4000DBFF0022024B1A8008BD00BF01590040A681FF1F08B5054B1B7823B9FFF7E8FF0122024B1A70FFF78BFF08BD8881FF1F024A137843F00103137070470059004090
:400A800010B4124B1B881BB233B1104B1B881BB203EB83035C0001E00D4B1C680D4B1988411A09B242F2107303FB01F2002903DD04EBD470401003E004EBD470401040423E
:400AC000831893FBF4F000B210BC7047A481FF1FA881FF1FA681FF1FF0B583B016461F460B4C012525700023019300932B460A4601462846FFF7C4FD3A4631462078FFF73E
:400B000099FD02212078FFF783FD207803B0F0BDE680FF1FF0B583B016461F460B4D00242C700194009423460A4601462046FFF7A7FD3A4631462878FFF77CFD02212878CF
:400B4000FFF766FD287803B0F0BD00BFE780FF1F014B1B681864704708ED00E04001C0B2014B1870704700BF00E400E0000000000230800803D000BF01380046FCD17047F1
:400B8000EFF3108072B6704780F31088704700BF014B1868704700BF4881FF1F0E4B70B51E460E4C0025E41AA410A54204D056F8253098470135F8E700F04CF8084B094CF9
:400BC0001E46E41AA4100025A54204D056F8253098470135F8E770BD600C0000600C0000600C0000680C000010B5431E0A44914204D011F8014B03F8014FF8E710BD0346D3
:400C00000244934202D003F8011BFAE77047000000000000004F00401800005100401000305100404000C05100401000F051004010000000014000100014014000080040EF
:400C40000140000A004C0140000200500140200043000000F8B500BFF8BC08BC9E4670474D00000011050000F8B500BFF8BC08BC9E46704729000000880C0000C880FF1F22
:400C80008800000060000000000000007F800000030000000000E02EC05D00001800000000366E01FFFFFFFF00000000000000000000000000000000000000000000000066
:400CC0000000000000000000500C00000000000000000000000000000000000000000000000000000000000000000000000000000000000000000000000000000000000098
:400D00000000000000000000E880FF1F000000000000000000000000000000000000000000000000000000000000000000000000000000000000000000000000000000002D
:400D40000000000000000000000000000000000000000000000000000000000000000000000000000000000000000000000000000000000000000000000000000000000073
:400D80000000000000000000000000000000000000000000000000000000000000000000000000000000000000000000000000000000000000000000000000000000000033
:400DC00000000000000000000000000000000000000000000000000000000000000000000000000000000000000000000000000000000000000000000000000000000000F3
:400E000000000000000000000000000000000000000000000000000000000000000000000000000000000000000000000000000000000000000000000000000000000000B2
:020000040003F7
:0200000480007A
:40000000024F004002520040015B00400164004001030140010501400406014003070140370801403F090140160A0140350B0140100C01402D0D0140100E0140240F0140A2
:4000400001150140011701400E18014034190140201A01402D1B014009400140034101400442014007430140084501400A460140064701400448014001490140044C014060
:40008000084D014007500140025101400A1B161B1013110927848804EC80E60138283E1458045F011F188710EE040201034206020A080B210C020D02104011011280141070
:4000C00016201708180819081C04208022402304242026102710280129042E043120334034FF351F39203E103F1056025736580459045B0C5C105D105F018A0192029501B4
:400100009C01A703B203B302B701D608D804D90CDB04DC19DD90DF0100100420052206020760088209800D080ECA140116081785181019081F102180220424042504263017
:40014000276029082E512F1032043414356236043C243E8259805F08600267086E0B6F057410760A79807B027F028A808B209180930899809B089C919D029F41A240A50C45
:40018000A630C0F2C2F9C4F0CAF2CCF2CEF0D648D828DE18EE0452035302580459045B045C115D105F019C01A202A401B002B201B808BE04D401D804D904DB0CDC11DD10F2
:4001C000DF0102200340040406800818090A0C100EA110011108140817491D021E801F06281029022C102D022F023108322033023409362038043A803C043D085C8069C0D4
:400200006B087D4080808601940499809A809C119D02A50CA620A702B501C03CC2FEC4F5CAD3CCE7CE4AD610DE10E20800010401100116011A0124012C01300158045904FA
:400240005C115F01D804D904DC11DF010004010204040680081109080C020D080F04100212201304141016021D01281129022A822C122F023108322033023502362037047A
:4002800038043D083E8099809B049C119D02A50CA620A702A810B180C03CC27EC4A5CA5BCCE7CE52EC81580459045C115F018401900194019A01A001A401AC01B201D8049A
:4002C000D904DC11DF01000401020404081109080C010D080F041002122013041410160217011C10281129022A822C122F0231083220330735023620370438043C043D083E
:400300003E80C02CC27EC4B5CA5BCCE7CE52EC20AB08030226012B01310232013301580459045C115F01D804D904DC11DF01022003400420050406010740082109040C0182
:400340000EA012411380168017041D0C2420250426082780282029042AC02C052F2030013220336034203608374038203A013E9187089211942098049A809B449D409F80F6
:40038000A270A508B610B780C0FCC23EC439CA7ACC7DCEB5E0080101090113011B011D0125012D013501580459045C115F0180018601880189018C018D019201960197016E
:4003C0009B019D01A001A501AD01B101B401D804D904DC11DF010108020903400420050C0601074008010C010EA0126016801E042308250129042AC02C012D0830013220CC
:4004000033403628374038203A013E908A048D019020921099049A819B409F08A278B020B140C0FFC238C41CCA5ACC7DCE35EC2013081680326036203B023E80C430CC30F7
:40044000CE6096809702B308824096809702E680632067408740AB01D8C0E640EE20501055215B805C02A101A901D407D6051B04260886089C029F80A520B410C608C801DB
:40048000EC0244019C029F80A520AB04D0042080AB10C840EE80B04085209C039F80A5208B808C029C029F80B001E008E404EC04000201010C020D010E0210021C02000FE5
:4004C000100A0000000B0B000000000000000000001F1F0000010000000000000000000000000000000000000000000000000000000000000000000000000000000000008D
:4005000000000000000000000000000000000000000000000000000000000000000000000000000000000000000000000000000000000000000000000000000000000000BB
:40054000000000000000000000000000000000000000000000000000000000000000000000000000000000000000000000000000000000000000000000000000000000007B
:40058000000000000000000000000000000000000000000000000000000000000000000000000000000000000000000000000000000000000000000000000000000000003B
:4005C00000000000000000000000000000000000000000000000000000000000000000000000000000000000000000000000000000000000000000000000000000000000FB
:0200000490006A
:0400000000004005B7
:0200000490105A
:04000000BC90ACAF55
:0200000490303A
:02000000BE59E7
:0200000490402A
:4000000000000000000000000000000000000000000000000000000000000000000000000000000000000000000000000000000000000000000000000000000000000000C0
:400040000000000000000000000000000000000000000000000000000000000000000000000000000000000000000000000000000000000000000000000000000000000080
:400080000000000000000000000000000000000000000000000000000000000000000000000000000000000000000000000000000000000000000000000000000000000040
:4000C0000000000000000000000000000000000000000000000000000000000000000000000000000000000000000000000000000000000000000000000000000000000000
:0200000490501A
:0C00000000012E16106900012E1BCEC25C
:00000001FF