:400000000080002011000000611700006117000080B500AF024A034B1B68136001F0D2FBBC760040FA46004010B5054C237833B9044B13B10448AFF300800123237010BD59
:40004000C885FF1F0000000078320000084B10B51BB108490848AFF300800848036803B910BD074B002BFBD0BDE81040184700BF00000000CC85FF1F78320000C880FF1FA6
:400080000000000080B400AF094B1B78DBB2042B03D1074B00221A7006E0054B1B78DBB20133DAB2024B1A7000BFBD4680BC7047E485FF1F80B400AF034B01221A7000BF22
:4000C000BD4680BC704700BFEF85FF1F2DE9B04392B002AF012002F0E9FF13237B850F233B857B8D3A8D02FB03F3FB84F98C0B46013B3B628AB24FF000034FEA831949EA24
:4001000092694FEA82188AB24FF000039D0145EA926594010B46DB0001330733DB08DB00ADEB030D02AB01335B085B00FB610023FB8719E0002387F83D300EE0F98F97F86D
:400140003D20FB6989000A444FF6FF7123F8121097F83D30013387F83D3097F83D30032BECD9FB8F0133FB87FA8FFB8C9A42E1D300237B87ADE000233B87A2E07A8F398F20
:40018000A5481346DB0013445B0013440B4450F82330002B40F092807B8F7A8D02FB03F39AB23B8F13447B837B8F002B1CD07B8F5A1E398F98481346DB0013445B001344C7
:4001C0000B4450F82330002B0ED17A8B7B8F013B9BB2798D01FB03F399B23B8F0B449BB219B2FB6923F832107A8F3B8D023B9A421EDC7B8F5A1C398F87481346DB001344B8
:400200005B0013440B4450F82330002B10D17B8B7A8F013292B2798D01FB02F291B23A8F0A4492B211B2FA69DB0013440A465A803B8F002B1ED07A8F3B8F591E7648134636
:40024000DB0013445B0013440B4450F82330002B10D17B8B7A8F798D01FB02F291B23A8F0A4492B2013A92B211B2FA69DB0013440A469A803A8F7B8D023B9A421EDC7A8FD3
:400280003B8F591C64481346DB0013445B0013440B4450F82330002B10D17B8B7A8F798D01FB02F291B23A8F0A4492B2013292B211B2FA69DB0013440A46DA803B8F013306
:4002C0003B873A8F7B8D9A42FFF458AF7B8F01337B877A8F3B8D9A42FFF44DAF01233B830123FB820923BB8209237B8200233B82FA8A3B8AD31A9BB27A8D02FB03F39AB2FB
:400300003B8B13449AB23B8AD31AFB817A8A3B8AD31A9BB27A8D02FB03F39AB2BB8A13449AB23B8AD31ABB81FA697C8DB989F8893B8D0093234600F08BFCB860F969BB89DF
:400340007A8DB86800F090FE7860002002F0AEFE62B6324801F008FD314802F097FA02F089FA00F0C3FA01F0C5FE01F0DBFE00237B6307E02B4A7B6B134401221A707B6BF1
:4003800001337B637B6B042BF4DD01F019FF01F0DBFF00F079FA01F0A9FD234B1B889BB21A467B6813441B7887F83330002001F0BFFE1E4B1B78DBB29BB2184601F0CEFE4B
:4003C00003469AB21A4B1A80194B1B881BB2184601F0E0FE03469AB2164B1A80134B1B78DBB21A46144B33F81220124B1B889A4208D20E4B1B78DBB21A460E4B19880E4B5C
:4004000023F812100D4B1B78DBB2012B40F06B810023FB6224E000BFCC80FF1F85000000B5000000B48AFF1FE685FF1FE485FF1FD08AFF1FBA8AFF1FF085FF1FEF85FF1F6D
:40044000934AFB6A32F81310924AFB6A22F813108F4AFB6A002122F81310FB6A0133FB62FB6A042BECDD97F93330002B03D18A4B01221A7017E097F93330012B03D1864B51
:4004800000221A700FE097F93330022B03D1824B02221A7007E097F93330B3F1FF3F02D17D4B03221A707D4B1B78052B1DD17C4B9B78012B16D17A4BDB78012B12D1794BDB
:4004C0001B889BB201339AB2764B1A80754B1B889BB21A467B6813441B7887F833306F4B00221A7000F092F91AE16C4B1B78012B09D16B4B1B78002B02D1684B03221A709D
:4005000000F0AAF90CE1654B1B78032B23D1664B1B88022B08D800F087F9634B1B8801339AB2614B1A80FBE05F4B00221A805D4B1B889BB201339AB25A4B1A80594B1B880F
:400540009BB21A467B6813441B7887F83330534B00221A70E4E0514B1B78022B09D1504B5B78002B02D14D4B04221A7000F080F9D6E04A4B1B78042B23D14B4B1B88022B57
:4005800008D800F05DF9484B1B8801339AB2464B1A80C5E0444B00221A80424B1B889BB201339AB23F4B1A803E4B1B889BB21A467B6813441B7887F83330384B00221A706C
:4005C000AEE0364B1B78002B40F08A80344B1B78002B13D1324B5B78002B0FD1304B9B78002B0BD12E4BDB78002B07D12C4B1B79002B03D1294B06221A7091E0284B1B786D
:40060000002B02D100F010F98AE0254B5B78002B02D100F015F983E0214B1B78012B1DD11F4B5B78012B19D11D4B9B78012B03D11B4BDB78002B07D0194B9B78002B0DD195
:40064000174BDB78012B09D1134B1B78022B05D1124B05221A7000F0D9F861E0104B1B78012B23D10E4B5B78012B1FD10C4B9B78002B1BD10A4BDB78012B17D1064B1B7844
:40068000002B13D0054B01221A7000F0CDF847E0F085FF1FFC85FF1F4085FF1FEE85FF1FB48AFF1FE685FF1FEC85FF1F514B1B78012B35D14F4B5B78012B31D14D4B9B7892
:4006C000012B2DD14B4BDB78002B29D14A4B1B78012B25D0494B02221A7000F0B1F81FE000F094F81CE0454B1B78062B18D100F0CBF8404B1B78012B0FD03E4B5B78012B86
:400700000BD03C4B9B78012B07D03A4BDB78012B03D0384B1B79012B02D1384B00221A70374B00221A70374B1B78DBB21A46364B33F81230B3F5FA7F2DD3324B1B78DBB249
:40074000002B03D12B4B01221A702FE62D4B1B78DBB2012B03D1274B01225A7026E6294B1B78DBB2022B03D1224B01229A701DE6244B1B78DBB2032B03D11E4B0122DA70A6
:4007800014E6204B1B78DBB2042B7FF40FAE194B01221A710AE61B4B1B78DBB2002B03D1144B00221A7001E6164B1B78DBB2012B03D1104B00225A70F8E5124B1B78DBB2BA
:4007C000022B03D10B4B00229A70EFE50D4B1B78DBB2032B03D1074B0022DA70E6E5094B1B78DBB2042B7FF4E1AD024B00221A71DCE500BFB48AFF1F4085FF1FEE85FF1FB1
:40080000EF85FF1FE485FF1FFC85FF1F80B500AF01F0D6FCA32001F077FD01F095FDAA2001F036FE00BF80BD80B500AF7D2001F06BFD01F089FDAA2001F02AFE00BF80BD93
:4008400080B500AF7D2001F023FE01F0B9FCA32001F05AFD00BF80BD80B500AF4B2001F053FD01F071FDAA2001F012FE00BF80BD80B500AF4B2001F00BFE01F0A1FCA320E8
:4008800001F042FD00BF80BD80B500AF7D2001F03BFD7D2001F0FCFD00BF80BD80B500AF02F07EF803469AB20C4B1A8002F0FEF803469AB20A4B1A80084B1B889AB2094B0B
:4008C0001A80074B1B889AB2074B1A80002002F079F8002002F0FCF800BF80BDD28AFF1FB08AFF1FC08AFF1FBE8AFF1F80B500AF094BA3221A70094BAA221A70084B412225
:400900001A7002F091F9074802F0D2F902F030F802F0B4F800BF80BDBC8AFF1FBD8AFF1FB28AFF1F9D08000080B584B000AF7860042002F015FC0346FB60FB687A689A602F
:40094000FB6800221A80FB6800229A80FB689B689BB2013B9BB21AB2FB685A80FB6818461037BD4680BD00BF80B485B000AF78600B467B800023FB810EE00C4A07F108034B
:4009800010681860FB897A6802339B001344BA685A60FB890133FB81FA897B889A42ECD300BF1437BD4680BC704700BF7C32000080B485B000AF78600B467B8013463B80CC
:4009C0007B68B3F9023001331A467B689B68B2FBF3F103FB01F3D31A1AB27B685A807B88BB813B88FB817B68B3F902307A6802339B001344FA685A607B68B3F904309BB24F
:400A000001339BB21AB27B689A8000BF1437BD4680BC704780B485B000AF78600B467B800023FB8113E07A88FB8913447988FA890A440132796802339B000B4479680232A7
:400A400092000A4452685A60FB890133FB81FA897B68B3F9023019467B88CB1A9A42E2DB7B68B3F902309BB2013B9BB21AB27B685A807B68B3F904309BB2013B9BB21AB245
:400A80007B689A8000BF1437BD4680BC704700BF80B485B000AF78600B467B800023FB8114E07B68B3F900301A46FB8913447A6802339B001344B3F90430B7F902209A421A
:400AC00001D1012309E0FB890133FB81FB897A68B2F904209342E4DB002318461437BD4680BC704790B484B000AF0346FB800B46BB8013467B80BB887A88B3FBF2F102FBBA
:400B000001F29B1A9BB21846B7F906307A8893FBF2F102FB01F29B1AC31A99B2BB887A88B3FBF2F002FB00F29B1A9BB21C46B7F906307A8893FBF2F002FB00F29B1AE31A1B
:400B40009BB203FB01F3FB81BA887B88B2FBF3F39BB21946B7F906207B8892FBF3F3CB1A9BB2B9887A88B1FBF2F292B21046B7F906107A8891FBF2F2821A92B202FB03F340
:400B8000BB81FA89BB891344054A82FB03129210DB17D31A9BB218461037BD4690BC70476766666680B586B000AF78604FF6FF73FB8200237B8223E07B68B3F900301A4680
:400BC0007B8A13447A6802339B001344DB88FA8A9A4212D97B68B3F900301A467B8A13447A6802339B001344DB88FB827B68B3F900309AB27B8A1344BB827B8A01337B82A4
:400C00007B8A7A68B2F904209342D5DBBB8A7A6802339B001344B3F904303B81BB8A7A6802339B001344DB887B81BB8A19467868FFF7F0FEBB68FB600023BA8962F30F032F
:400C4000FA8962F31F4318461837BD4680BD00BF2DE9F04F95B000AF3A611A460346FB820B46BB821346FB816B46BB60FB89B7F8782002FB03F3A7F84230B7F84230184607
:400C8000FFF752FEF863B7F842301946F86BFFF76BFEB7F9163000221946F86BFFF788FEB7F842000346013BBB6381B24FF000020B461446DB1844EB04045B1844EB020476
:400CC0004FEA041949EA13794FEA031843464C46024613465B0013445B0081B24FF000020B461446DB1844EB04045B1844EB0204260146EA13761D012B4634460246134647
:400D00005B0013445B0001330733DB08DB00ADEB030D6B4601335B085B007B630023A7F84E3026E0B7F84E20796B13465B0013445B000B444FF6FF721A80B7F84E20796B04
:400D400013465B0013445B000B4402334FF6FF721A80B7F84E20796B13465B0013445B000B44043300221A70B7F84E300133A7F84E30B7F84E20B7F842309A42D2D3FA8ADF
:400D8000796B13465B0013445B000B44023301221A805AE1F86BFFF705FF0346FB61B7F91C3019467A6B0B465B000B445B001344043301221A70B7F91C301A46BB8A9A421D
:400DC00040F0C9806B461D46B7F842201346013BBB6293B24FF000044FEA041B4BEA137B4FEA031A93B24FF0000421017960796841EA137179601B013B6013465B0001331F
:400E00000733DB08DB00ADEB030D6B4601335B085B007B620023A7F84C300BE0B7F84C207B6A4FF6FF7123F81210B7F84C300133A7F84C30B7F84C20B7F842309A42EDD325
:400E4000BB8AA7F84A30BA8A796B13465B0013445B000B4402331B88A7F8483017E0B7F84A20B7F948107B6A23F81210B7F84A20796B13465B0013445B000B44B3F9003080
:400E8000A7F84A30B7F84830013BA7F84830B7F84A20796B13465B0013445B000B44B3F900301A46FB8A9A42D9D1B7F84A20B7F948107B6A23F81210B7F84830013BA7F861
:400EC0004830FA8AB7F948107B6A23F81210BA8A796B13465B0013445B000B4402331B8801335B00184602F03BF903463B620023A7F846301BE0B7F846207B6A33F9123083
:400F0000B3F1FF3F0ED0B7F846207B6A33F91230A7F84830B7F848305B003A6A1344B7F846201A80B7F846300133A7F84630B7F84620B7F842309A42DDD3BA8A796B134695
:400F40005B0013445B000B4402331A883B6A1A803B6AAD4680E0002387F8453071E0B7F91C30DB003A69134497F8452033F812307B86B7F93230B3F1FF3F5DD0B7F9322049
:400F8000796B13465B0013445B000B4404331B78002B50D1B7F91C3019467A6B0B465B000B445B00134402331B8801333B86B7F93220796B13465B0013445B000B440233F8
:400FC0001B883A8E9A4237D2FA89B98AB7F932301846FFF787FD03461A463B8E1344FB85B7F93220796B13465B0013445B000B4402333A8E1A80B7F93220B7F91C00796BC4
:4010000013465B0013445B000B4402461A80B7F932301946F86BFFF73BFD034683F00103DBB2002B08D0FA8DB7F932301946F86BFFF7BEFC00E000BF97F84530013387F866
:40104000453097F84530032B89D9FB6BB3F90430002B7FF49FAE0023D7F808D018465437BD46BDE8F08F00BF80B588B000AFF860B96011461A460B46FB801346BB80FB6896
:401080001B88FB82FB8A184602F06AF803463B610023FB8307E0FB8B3A691344FF221A70FB8B0133FB83FA8BFB8A9A42F3D30123BB8300237B8304237B7604233B7611E1F8
:4010C000BB8B5B00FA6813441B881946BB8B01335B00FA6813441B88CA1AFB889A4202D100237B7635E0BB8B01335B00FA6813441B881946BB8B5B00FA6813441B88CA1AB3
:40110000FB889A4202D102237B7622E0BB8B01335B00FA6813441B881946BB8B5B00FA6813441B88CB1A012B02D101237B7610E0BB8B5B00FA6813441B881946BB8B013319
:401140005B00FA6813441B88CB1A012B01D103237B767A7E3B7E9A4265D03B7E042B62D07B7E032B52D801A252F823F07D110000A1110000C5110000E91100003B7E012B9C
:4011800005D17B8B3A69134400221A7040E03B7E032B3DD17B8B3A69134401221A7037E03B7E002B05D17B8B3A69134401221A7030E03B7E022B2DD17B8B3A691344002257
:4011C0001A7027E03B7E012B05D17B8B3A69134401221A7020E03B7E032B1DD17B8B3A69134400221A7017E03B7E002B05D17B8B3A69134400221A7010E03B7E022B0DD164
:401200007B8B3A69134401221A7007E000BF06E000BF04E000BF02E000BF00E000BF7B8B01337B8359E07A7E3B7E9A4255D13B7E042B52D03B7E002B02D03B7E022B22D116
:40124000BB8B5B00FA6813441B88DB00BA681344B3F90430B3F1FF3F0CD1BB8B5B00FA6813441B88DB00BA681344B3F90630B3F1FF3F31D07B8B3A69134402221A707B8BB4
:4012800001337B8328E03B7E012B02D03B7E032B23D1BB8B5B00FA6813441B88DB00BA681344B3F90030B3F1FF3F0CD1BB8B5B00FA6813441B88DB00BA681344B3F9023047
:4012C000B3F1FF3F09D07B8B3A69134402221A707B8B01337B8300E000BF7B7E3B76BB8B0133BB83BB8B5B00FA6813441B88BA889A427FF4E5AE3B6918462037BD4680BD92
:4013000080B582B000AF786039603A680021786801F039FF00BF0837BD4680BD80B584B000AFF860B9607A607A68B968F86801F01FFF00BF1037BD4680BD00BF80B483B0DB
:4013400000AF0346FB71FEE780B487B000AF7860396000233B6100237B6127E07B699B007A6813441B68BB60BB68FB73BB6823F0FF03BB6014E03B695B003A6813441B781B
:401380001A46BB68134419463B695B003A6813445B780B703B6901333B61FB7B013BFB73FB7B002BE7D17B6901337B617B692A2BD4D900BF1C37BD4680BC704780B582B078
:4013C00000AF3C4B17221A803B4B18221A703B4B01221A803A4B18221A703A4B0E221A80394B18221A70394B17221A80384B18221A70384B17221A80374B18221A70374BBB
:4014000006221A70364B52221A70364B364A1278D2B21A70354B4FF4E1621A80344B41F251221A800023FB7019237B6014E0FB785B00DAB22F4B1B78DBB203F00103DBB272
:401440001343DBB203F00303FB704FF4F07001F04BFE7B68013B7B607B68002B02D0FB78032BE4D17B68002B02D10320FFF766FF214B4FF480721A801F4B07221A701F4BF7
:4014800000221A701E4B48221A701B4B00221A701C4B00221A701C4B02221A701B4A1B4B1B78DBB243F01F03DBB2137000BF0837BD4680BD80400040824000408440004055
:4014C00086400040884000408A4000408C4000408E40004090400040924000400043004000420040A14600400F01004922420040204200402542004004400040064000401C
:40150000084000400940004001400040A243004080B582B000AF214B1B78FB71204B1B78BB71204B1B787B711F4AFB7903F00703DBB213701D4AFB791B09DBB21370184A04
:40154000BB7943F00303DBB21370164A7B7943F00303DBB21370164B03221A70154BE0221A70154B40221A70144B40221A70144B3E221A70134B20221A700A2000F0E0FB56
:40158000084A7B791370064ABB7913700E4B44221A7000BF0837BD4680BD00BFCF010049F8460040F94600406E5800406F5800400D5100402D510040015900400359004060
:4015C000205B0040235B00407658004080B582B000AF72B6464A464B1B78DBB243F00403DBB213700023FB7113E0FA7913465B0013445B003F4A13443B603B681A683B68FD
:401600009B889BB219461046FFF77AFEFB790133FB71FB79062BE8D937494FF09040FFF793FE04213548FFF76BFE042234493548FFF774FE344B354A1A60354B354A1A600D
:40164000354A354B1B78DBB243F00203DBB21370324A324B1B78DBB243F00203DBB213702F4A2F4B1B78DBB243F04003DBB213702C4A2C4B1B78DBB243F01003DBB21370A6
:40168000082229492948FFF749FE082228492948FFF744FE082228492848FFF73FFE082227492848FFF73AFE082227492748FFF735FE274A264B1B78DBB243F00803DBB227
:4016C0001370244B61221A70FFF778FE214B81221A70214B01221A70FFF71AFF0E2210491E48FFF71BFE00BF0837BD4680BD00BFE846004080320000AC00004800760040F9
:40170000DC0B004808760040D8040140040404C4D8160140040400440350014013500140A0430040C2430040B40B004802510040BC0B0048C2510040C40B0048F25100401E
:40174000CC0B004812510040D40B004822510040224300400048004004000840B043004080B500AF01F0D0FC03461B680C2B00D1FEE7FEE780B584B000AF78600F4B1A6816
:401780007B6813441A460E4BD31A802B09DC0B4B1B68FB60094B1A687B681344074A136007E001F0B1FC02460C2313604FF0FF33FB60FB6818461037BD4680BD4485FF1F47
:4017C000F08AFF1F80B586B000AF224B7B61224B3B61204B7B6135E03B691B68FB603B695B68BB603B699B683B6000237B600CE0FB681A68BB681A60BB680433BB60FB68FF
:401800000433FB607B6804337B607A683B689A42EED13B69DB683B6000237B6008E0BB6800221A60BB680433BB607B6804337B607A683B689A42F2D13B6910333B617B69E5
:40184000013B7B617B69002BC6D101F063FCFEF73DFCFEE701000000D032000080B582B000AF194B194A1A60194A194B1B6843F40073136000237B600FE07B68032B04D8AC
:40188000144A7B6852F8233000E0134B13497A6841F822307B6801337B607B682F2BECD90F4B1B78DAB20F4B1A700F4B0B4A1A60FFF78CFE00F01CF80C4B00221A6000BF93
:4018C0000837BD4680BD00BF0CED00E00004FA0514ED00E000000000611700000080FF1FBC760040C480FF1F08ED00E0C080FF1F80B483B000AF134B7F221A70124B802232
:401900001A707F23FB710CE0FB79DB0003F1804303F5F043FA79013AD2B21A70FB79013BFB71FB79002BEFD1FB79DB0003F1804303F5F04300221A7000BF0C37BD4680BC9D
:40194000704700BF4985FF1F4885FF1F80B485B000AF03460A46FB711346BB710123FB60FB79172B2FD8BB79002B0ED0FB791A01184B1344FA791101164A0A441278D2B275
:4019800042F02002D2B21A700DE0FB791A01114B1344FA7911010F4A0A441278D2B222F02002D2B21A70FB791A010A4B1344FA791101084A0A441278D2B242F00102D2B2F3
:4019C0001A700023FB60FB6818461437BD4680BC704700BF1070004080B485B000AF0346FB710123FB60FB79172B1DD8FB791A01104B1344FA7911010E4A0A441279D2B2EC
:401A000042F00402D2B21A71FB791A01094B1344FA791101074A0A441278D2B242F00102D2B21A700023FB60FB6818461437BD4680BC70471070004080B485B000AF03460F
:401A40000A46FB711346BB710123FB60FB79172B1BD8FB791A01104B13441B78DBB223F00E03FB72FB791A010B4B1344BA795200D2B252B202F00E0251B297F90B200A43B5
:401A800052B2D2B21A700023FB60FB6818461437BD4680BC704700BF1070004080B485B000AF0346FB710B46BB8013467B800123FB60BB8841F6FF72934202D14FF40053C0
:401AC000BB807B8841F6FF72934202D14FF400537B80FB79172B17D8FB79DB0003F1804303F5EC430433BB60BB68BA881A80FB79DB0003F1804303F5EC430633BB60BB6800
:401B00007A881A800023FB60FB6818461437BD4680BC704780B485B000AF03460A46FB711346BB710123FB60FB79172B07D8FB791A01064B1344BA795A720023FB60FB68BC
:401B400018461437BD4680BC704700BF1070004090B484B000AF0446084611461A462346FB710346BB710B467B7113463B710123FB60FB79172B34D8FB79DB0003F18043FE
:401B800003F5EC43BA7902F07F02D1B27A79D201D2B20A43D2B21A70FB79DB0003F1804303F5EC433A7E1201D1B23A7902F00F02D2B20A43D2B25A70FB79DB0003F18043DA
:401BC00003F5EC433A7F02F00F02D2B29A70FB79DB0003F1804303F5EC430022DA700023FB60FB6818461037BD4690BC704700BF80B582B000AFFF23FB7101F07DFA03463B
:401C0000BB71104B1B78182B12D90F4B1B78FB710C4B1B78013BDAB20A4B1A70FB79DB0003F1804303F5F0431B78DAB2064B1A70BB79184601F064FAFB7918460837BD4652
:401C400080BD00BF4885FF1F4985FF1F90B484B000AF0446084611461A462346FB710346BB800B46BB711346FB700123FB6097F90730002B23DBBB8823F47F6323F00F03B1
:401C80009BB2002B1BD1FB79DB0003F1804303F5F043BB60BB68BA881A80FB79DB0003F1804303F5F043BA799A70FB79DB0003F1804303F5F043FA78DA700023FB60FB6839
:401CC00018461037BD4690BC704700BF80B485B000AF0346FB710B46BB8013467B800123FB6097F90730002B17DBFB79DB0003F1804303F5F0430433BB60BB68BA881A80E8
:401D0000FB79DB0003F1804303F5F0430633BB60BB687A881A800023FB60FB6818461437BD4680BC704700BF80B483B000AF0346FB7101BE00BF0C37BD4680BC704700BFDF
:401D400080B582B000AF0346FB80FB88054A127802FB03F3184601F0C7F900BF0837BD4680BD00BF5885FF1F80B582B000AF786000F03CF8786800F009F8072000F018F829
:401D800000F028F800BF0837BD4680BD80B485B000AF7860054B1B68FB60FB6844337A681A6000BF1437BD4680BC704708ED00E080B483B000AF0346FB71054AFB795B01C2
:401DC000DBB2137000BF0C37BD4680BC704700BF01E400E080B400AF034B02221A6000BFBD4680BC704700BF00E100E080B400AF034B02221A6000BFBD4680BC704700BF10
:401E000080E100E080B500AF224A224B1B78DBB203F00103DBB213701F4A1F4B1B78DBB223F00303DBB213701C4A1C4B1B78DBB223F03003DBB21370184A184B1B78DBB239
:401E400043F03003DBB21370144A144B1B78DBB223F00F03DBB21370104A104B1B78DBB243F00F03DBB213700D4A0D4B1B78DBB243F00103DBB2137042F20F7000F058F8A7
:401E800042F20F7000F066F8082000F041F800BF80BD00BF244F0040264F00402F4F0040254F004080B400AF0D4A0D4B1B78DBB243F00803DBB213700A4A0A4B1B78DBB272
:401EC00043F00803DBB21370074A074B1B78DBB243F00103DBB2137000BFBD4680BC7047A3430040B3430040244F004080B500AF064B1B78002B04D1FFF784FF034B012214
:401F00001A70FFF7CFFF00BF80BD00BF0886FF1F80B483B000AF0346FB71044AFB79137000BF0C37BD4680BC704700BF274F004080B485B000AF0346FB80FB88FB81044A46
:401F4000FB89138000BF1437BD4680BC704700BF284F004080B483B000AF0346FB80044AFB88138000BF0C37BD4680BC704700BF2A4F004080B500AF41F6FF734FF4804294
:401F80000121022000F0EEFB03461A460A4B1A7041F6FF7341F6FF7201210A2000F014FC03461A46054B1A70054800F03FFC002000F04EFC00BF80BD1086FF1F1186FF1F25
:401FC000B521000080B582B000AF414B1B781846FFF702FD3F4B1B781846FFF7FDFC3E4B1B78FF2B05D1FFF703FE03461A463A4B1A70394B1878384B1A7806230A21FFF7DB
:4020000025FE354B1B78354A92B245F6A0311846FFF75CFE2E4B1A782F4B1B7819461046FFF778FD2E4B1B78FF2B05D1FFF7E0FD03461A462A4B1A70294B1878284B1A7825
:4020400007230A21FFF702FE254B1B78234A91B2244A92B21846FFF739FE1E4B1A78204B1B7819461046FFF755FD194B1B7801211846FFF76BFC174B1B7801211846FFF7F0
:4020800065FC01F039F80346FB71174A164B1B78DBB243F02003DBB21370FB79184601F02FF8124A114B1B78DBB243F00103DBB213700E4A0D4B1B78DBB243F00203DBB202
:4020C00013700B4B01221A6000BF0837BD4680BD1086FF1F1186FF1F6085FF1F1486FF1F6185FF1FD48AFF1F9D6400407964004080E200E080B500AF084B1B68002B04D12E
:40210000FFF738FF054B01221A6000F0E1F9FFF759FF034B1B7800BF80BD00BF0C86FF1F6A64004080B500AF00F086FA00BF80BD80B485B000AF0346FB71074B1B78FB73A3
:40214000FB7B002B02D1FB79002BF6D0FB7B18461437BD4680BC70476A64004080B483B000AF0346FB80FB88C3F10403074A32F913309AB2064B1B881BB29BB2D31A9BB2F8
:402180001BB218460C37BD4680BC7047D48AFF1FE88AFF1F80B582B000AF0346FB80B7F90630184600F098FA034618460837BD4680BD00BF80B400AF00BFBD4680BC704792
:4021C00080B500AF064B1B78002B04D100F00AF8034B01221A7000F063F800BF80BD00BF1E86FF1F80B582B000AF284A274B1B78DBB243F00203DBB21370254B1B78DBB270
:4022000023F07003FB71224AFB7943F01003DBB21370204A1F4B1B78DBB223F03003DBB213701C4A1B4B1B78DBB243F03003DBB21370184A174B1B78DBB223F00F03DBB234
:402240001370144A134B1B78DBB243F00F03DBB21370FA2000F048F87D2000F055F8002000F062F80C4A0C4B1B78DBB243F00203DBB21370094A094B1B78DBB243F0010309
:40228000DBB2137000BF0837BD4680BD0C4F00400E4F0040174F0040A34300400D4F004080B400AF0D4A0D4B1B78DBB243F00203DBB213700A4A0A4B1B78DBB243F0020335
:4022C000DBB21370074A074B1B78DBB243F00103DBB2137000BFBD4680BC7047A3430040B34300400C4F004080B483B000AF0346FB71044BFA7992B21A8000BF0C37BD46A8
:4023000080BC7047104F004080B483B000AF0346FB71044BFA7992B21A8000BF0C37BD4680BC7047124F004080B483B000AF0346FB71044AFB79137000BF0C37BD4680BCB6
:40234000704700BF0F4F004080B500AF064B1B78002B04D100F00AF8034B01221A7000F063F800BF80BD00BF1F86FF1F80B582B000AF284A274B1B78DBB243F00203DBB2EC
:402380001370254B1B78DBB223F07003FB71224AFB7943F01003DBB21370204A1F4B1B78DBB223F03003DBB213701C4A1B4B1B78DBB243F03003DBB21370184A174B1B78DF
:4023C000DBB223F00F03DBB21370144A134B1B78DBB243F00F03DBB21370FA2000F048F87D2000F055F8002000F062F80C4A0C4B1B78DBB243F00403DBB21370094A094B9E
:402400001B78DBB243F00103DBB2137000BF0837BD4680BD184F00401A4F0040234F0040A3430040194F004080B400AF0D4A0D4B1B78DBB243F00403DBB213700A4A0A4B82
:402440001B78DBB243F00403DBB21370074A074B1B78DBB243F00103DBB2137000BFBD4680BC7047A3430040B3430040184F004080B483B000AF0346FB71044BFA7992B25F
:402480001A8000BF0C37BD4680BC70471C4F004080B483B000AF0346FB71044BFA7992B21A8000BF0C37BD4680BC70471E4F004080B483B000AF0346FB71044AFB791370BF
:4024C00000BF0C37BD4680BC704700BF1B4F004080B500AF064B1B78002B04D100F00AF8034B01221A7000F01BF800BF80BD00BF2086FF1F80B500AF074A074B1B78DBB29D
:4025000043F00603DBB213700C2000F06BF8034B00221A8000BF80BD01590040E28AFF1F80B582B000AF00F0E7FD0346FB71254A244B1B78DBB243F00103DBB21370224A56
:40254000214B1B78DBB243F00103DBB213701F4B1B78BB71BB7943F00203BB71BB7943F00103BB71194ABB791370194B18221A70184A184B1B78DBB243F04003DBB2137083
:40258000144A144B1B78DBB223F00303DBB21370114BC8221A70114B02221A70104A104B1B78DBB243F00803DBB213700A20FFF7C7FBFB79184600F0A3FD00BF0837BD46D3
:4025C00080BD00BFAB430040BB4300400359004006590040055900400059004014460040275B004080B584B000AF0346FB71FB790A2B07D00C2B02D0082B06D008E0C22379
:40260000FB730BE08223FB7308E04223FB7305E0C223FB730020FFF787FB00BF054AFB7B1370FB79184600F017F800BF1037BD4680BD00BF0259004080B400AF054A054BA9
:402640001B78DBB243F00103DBB2137000BFBD4680BC70470059004080B584B000AF0346FB71FB790A2B08D00C2B02D0082B08D00BE04FF48053FB600DE04FF48063FB6079
:4026800009E04FF48073FB6005E00023FB600020FFF74AFB00BF0C4B00221A80FB6842F2107202FB03F303F6C413084A82FB0312D212DB17D31A064A1360064B00221A80BD
:4026C00000BF1037BD4680BDE08AFF1FAD8BDB68E48AFF1FE88AFF1F80B485B000AF0346FB801D4B1B881BB2002B09D01A4B1B881BB21A4613469B0013445B00FB6002E0A5
:40270000164B1B68FB60164B1B881BB2FA889BB2D31A9BB2FB80B7F9063042F2107202FB03F2B7F90630002B04DDFB68D90F0B445B1004E0FB68D90F0B445B105B421A449C
:40274000FB6892FBF3F37B81B7F90A3018461437BD4680BC704700BFE08AFF1FE48AFF1FE28AFF1F90B585B002AF0446084611461A462346FB710346BB710B46BB801346F8
:402780007B80104B01221A700E4B1878BA79F97900230193002300930123FFF7D9F9094B1B787A88B9881846FFF778F9054B1B7802211846FFF740F9024B1B7818460C372C
:4027C000BD4690BD6285FF1F90B585B002AF0446084611461A462346FB710346BB710B46BB8013467B80104B00221A700E4B1878BA79F97900230193002300930023FFF7C5
:40280000A7F9094B1B787A88B9881846FFF746F9054B1B7802211846FFF70EF9024B1B7818460C37BD4690BD6385FF1F80B485B000AF7860054B1B68FB60FB6840337A682D
:402840001A6000BF1437BD4680BC704708ED00E080B483B000AF0346FB71054AFB795B01DBB2137000BF0C37BD4680BC704700BF00E400E080B400AF034B01221A6000BF07
:40288000BD4680BC704700BF00E100E080B582B000AF786000F03CF8786800F009F8072000F018F800F028F800BF0837BD4680BD80B485B000AF7860054B1B68FB60FB68C9
:4028C00048337A681A6000BF1437BD4680BC704708ED00E080B483B000AF0346FB71054AFB795B01DBB2137000BF0C37BD4680BC704700BF02E400E080B400AF034B04225E
:402900001A6000BFBD4680BC704700BF00E100E080B400AF034B04221A6000BFBD4680BC704700BF80E100E080B400AF00BFBD4680BC704780B582B000AF0F2000F06AF833
:4029400000F05AF800F0D8FB0346FB71074A074B1B78DBB243F01003DBB21370FB79184600F0CEFB00BF0837BD4680BD9064004080B500AF00F03AFA4FF4004000F064FAAE
:40298000064B1B78002B04D1FFF7CEFF034B01221A70FFF7CFFF00BF80BD00BF2186FF1F80B582B000AF00F05FFA0346FB80FB88A3F500439BB2BB80B7F9043018460837A7
:4029C000BD4680BD80B584B000AF0346FB80B7F90630002B04DBFB88A3F50043FB8103E0FB88A3F50043FB81FB89184600F02CFA00BF1037BD4680BD80B400AF044B1B7831
:402A0000DBB203F00F03DBB21846BD4680BC70476064004080B483B000AF0346FB71044AFB79137000BF0C37BD4680BC704700BF8064004080B400AF00BFBD4680BC70479C
:402A400080B582B000AF0F2000F06AF800F05AF800F052FB0346FB71074A074B1B78DBB243F01003DBB21370FB79184600F048FB00BF0837BD4680BD9665004080B500AF10
:402A800000F08CFA4FF4004000F0B6FA064B1B78002B04D1FFF7CEFF034B01221A70FFF7CFFF00BF80BD00BF2286FF1F80B582B000AF00F0B1FA0346FB80FB88A3F50043C3
:402AC0009BB2BB80B7F9043018460837BD4680BD80B584B000AF0346FB80B7F90630002B04DBFB88A3F50043FB8103E0FB88A3F50043FB81FB89184600F07EFA00BF1037DA
:402B0000BD4680BD80B400AF044B1B78DBB203F00F03DBB21846BD4680BC70476665004080B483B000AF0346FB71044AFB79137000BF0C37BD4680BC704700BF8665004020
:402B400080B500AF224A224B1B78DBB203F00103DBB213701F4A1F4B1B78DBB223F00303DBB213701C4A1C4B1B78DBB223F03003DBB21370184A184B1B78DBB243F03003C7
:402B8000DBB21370144A144B1B78DBB223F00F03DBB21370104A104B1B78DBB243F00F03DBB213700D4A0D4B1B78DBB243F00103DBB2137041F2873000F058F841F287309F
:402BC00000F066F8082000F041F800BF80BD00BF004F0040024F00400B4F0040014F004080B400AF0D4A0D4B1B78DBB243F00103DBB213700A4A0A4B1B78DBB243F0010338
:402C0000DBB21370074A074B1B78DBB243F00103DBB2137000BFBD4680BC7047A3430040B3430040004F004080B500AF064B1B78002B04D1FFF784FF034B01221A70FFF7A8
:402C4000CFFF00BF80BD00BF2386FF1F80B483B000AF0346FB71044AFB79137000BF0C37BD4680BC704700BF034F004080B485B000AF0346FB80FB88FB81044AFB8913806B
:402C800000BF1437BD4680BC704700BF044F004080B483B000AF0346FB80044AFB88138000BF0C37BD4680BC704700BF064F004080B582B000AF786000F03CF8786800F056
:402CC00009F8072000F018F800F028F800BF0837BD4680BD80B485B000AF7860054B1B68FB60FB6884337A681A6000BF1437BD4680BC704708ED00E080B483B000AF034696
:402D0000FB71054AFB795B01DBB2137000BF0C37BD4680BC704700BF11E400E080B400AF034B4FF400321A6000BFBD4680BC704700E100E080B400AF034B4FF400321A60B6
:402D400000BFBD4680BC704780E100E080B582B000AF1C4B1B78DBB223F00703FB71194AFB791370174B1B78DBB223F00303FB71144AFB79137000F0B3F84FF4004000F073
:402D80008FF84FF4004000F05FF8002000F040F800F04EF84FF4004000F092F800F0ACF90346BB71084A084B1B78DBB243F01003DBB21370BB79184600F0A2F900BF083707
:402DC000BD4680BD746400409564004080B400AF054A054B1B78DBB263F07F03DBB2137000BFBD4680BC70477464004080B500AF064B1B78002B04D1FFF7A8FF034B012218
:402E00001A70FFF7E3FF00BF80BD00BF2486FF1F80B483B000AF0346FB71044AFB79137000BF0C37BD4680BC704700BF8564004080B400AF034B1B78DBB21846BD4680BCCF
:402E4000704700BF6564004080B483B000AF0346FB80044AFB88138000BF0C37BD4680BC704700BF0868004080B400AF044B1B78044B1B889BB21846BD4680BC704700BF17
:402E8000046400408868004080B400AF034B1B889BB21846BD4680BC704700BF8868004080B483B000AF0346FB80044AFB88138000BF0C37BD4680BC704700BF48680040F1
:402EC00080B483B000AF0346FB80044AFB88138000BF0C37BD4680BC704700BF6868004080B500AF01E0FFF7CFFFFFF7A1FF034603F04003002BF6D100BF80BD80B582B0DA
:402F000000AF1C4B1B78DBB223F00703FB71194AFB791370174B1B78DBB223F00303FB71144AFB79137000F0B3F84FF4004000F08FF84FF4004000F05FF8002000F040F875
:402F400000F04EF84FF4004000F092F800F0D4F80346BB71084A084B1B78DBB243F01003DBB21370BB79184600F0CAF800BF0837BD4680BD726400409765004080B400AF1B
:402F8000054A054B1B78DBB263F07F03DBB2137000BFBD4680BC70477264004080B500AF064B1B78002B04D1FFF7A8FF034B01221A70FFF7E3FF00BF80BD00BF2586FF1FE6
:402FC00080B483B000AF0346FB71044AFB79137000BF0C37BD4680BC704700BF8765004080B400AF034B1B78DBB21846BD4680BC704700BF6765004080B483B000AF03460F
:40300000FB80044AFB88138000BF0C37BD4680BC704700BF0C68004080B400AF044B1B78044B1B889BB21846BD4680BC704700BF066400408C68004080B400AF034B1B887D
:403040009BB21846BD4680BC704700BF8C68004080B483B000AF0346FB80044AFB88138000BF0C37BD4680BC704700BF4C68004080B483B000AF0346FB80044AFB88138095
:4030800000BF0C37BD4680BC704700BF6C68004080B500AF01E0FFF7CFFFFFF7A1FF034603F04003002BF6D100BF80BD80B485B000AF0346FB710B4B1B78DBB223F002035E
:4030C000FB730849FB795B00DBB203F00203DAB2FB7B1343DBB20B7000BF1437BD4680BC704700BF205100400230800803D000BF01380046FCD17047EFF3108072B670474D
:4031000080F31088704700BF014B1868704700BFC485FF1F0E4B70B51E460E4C0025E41AA410A54204D056F8253098470135F8E700F0BCF8084B094C1E46E41AA410002579
:40314000A54204D056F8253098470135F8E770BDB8320000B8320000B8320000C0320000024B0146186800F017B800BFC485FF1F10B5431E0A44914204D011F8014B03F8BC
:40318000014FF8E710BD03460244934202D003F8011BFAE77047000070B5CD1C25F0030508350C2D38BF0C25002D064601DBA94202D90C23336046E000F05CF8234B1C682C
:4031C0001A462146A1B10B685B1B0ED40B2B03D90B60CC18CD501EE08C420BBF63684B681360636018BF0C4615E00C464968E9E7174C23681BB9304600F02CF820602946F7
:40320000304600F027F8431C18D0C41C24F00304A0420DD12560304600F02DF804F10B00231D20F00700C31A0ED05A42E25070BD211A304600F00EF80130EBD10C23336094
:40324000304600F018F8002070BD00BF2C86FF1F2886FF1F38B5064C0023054608462360FEF788FA431C02D1236803B12B6038BDEC8AFF1F7047704700000000FFFFFFFF4C
:40328000004F0040300030510040400000000140001000140140000800400140000A004C014000020050014020004300F8B500BFF8BC08BC9E4670474D0000005D18000051
:4032C000F8B500BFF8BC08BC9E46704729000000E0320000C880FF1F0005000028050000000000000100000001000000010000000100000001000000010000000100000075
:403300000100000001000000010000000100000001000000010000000100000001000000010000000100000001000000010000000100000000000000000000000000000080
:40334000000000000000000001000000000000000000000000000000000000000000000000000000000000000000000000000000000000000000000001000000010000004A
:403380000100000001000000010000000100000000000000010000000000000001000000010000000100000001000000010000000100000001000000000000000100000000
:4033C00000000000010000000100000000000000000000000000000000000000000000000000000000000000000000000000000000000000000000000000000000000000CB
:403400000100000000000000010000000000000001000000010000000000000001000000000000000100000001000000010000000100000001000000000000000100000081
:403440000000000001000000010000000100000000000000010000000000000001000000010000000000000001000000000000000000000000000000010000000000000044
:403480000000000000000000010000000000000001000000000000000000000000000000010000000000000001000000010000000000000001000000010000000100000004
:4034C00000000000010000000000000001000000000000000100000000000000010000000000000001000000010000000100000000000000010000000100000000000000C3
:403500000000000000000000000000000000000001000000000000000100000000000000010000000000000001000000000000000100000000000000000000000000000086
:40354000010000000100000000000000010000000100000001000000010000000100000000000000010000000000000001000000010000000100000000000000010000003F
:403580000000000001000000010000000100000001000000000000000000000000000000000000000000000000000000000000000100000000000000000000000000000006
:4035C00001000000000000000100000000000000000000000000000001000000010000000100000001000000010000000100000001000000010000000000000001000000C0
:403600000100000001000000000000000100000000000000010000000100000001000000000000000100000001000000000000000000000000000000000000000000000082
:403640000000000000000000000000000000000001000000000000000100000000000000000000000000000000000000000000000100000001000000000000000100000045
:4036800001000000010000000100000001000000010000000100000000000000010000000000000001000000010000000100000001000000010000000000000001000000FD
:4036C00001000000000000000000000000000000000000000000000000000000000000000100000000000000000000000000000000000000000000000000000000000000C8
:40370000000000000000000001000000010000000100000001000000010000000100000001000000010000000100000001000000010000000100000001000000010000007B
:4037400001000000010000000100000001000000010000000100000003000000F08AFF1F807F00000300000000366E01C05D0000180000000000E02EFFFFFFFF00000000C2
:4037800000000000000000000000000000000000000000000000000000000000AA32000000000000000000000000000000000000000000000000000000000000000000002D
:4037C000000000000000000000000000000000000000000000000000000000006485FF1F0000000000000000000000000000000000000000000000000000000000000000C2
:403800000000000000000000000000000000000000000000000000000000000000000000000000000000000000000000000000000000000000000000000000000000000088
:403840000000000000000000000000000000000000000000000000000000000000000000000000000000000000000000000000000000000000000000000000000000000048
:403880000000000000000000000000000000000000000000000000000000000000000000000000000000000000000000000000000000000000000000000000000000000008
:4038C00000000000000000000000000000000000000000000000000000000000000000000000000000000000000000000000000000000000000000000000000000000000C8
:020000040003F7
:0200000480007A
:40000000074F004007520040015B004003640040026500404A000140300101404B020140430301405E0401404D0501406D0601404A070140130801403D090140260A0140C5
:400040003A0B0140330C01403F0D01401B0E0140290F0140041401400C15014041160140471701402F18014032190140081A01402C1B01400A400140114101400842014070
:400080000743014003440140074501400B460140084701400A48014008490140074C0140064D01400A5001400251014001300A360D401636194022362E360002010210A02E
:4000C00011806020611078202784800F856F8D04860F876F000C010E02020501080809160A010B080E100F011110120F13021410171E181019181B04240C26012701280B22
:400100002A042C072D182F02300F3410351E37013E103F40540F580459045B045C115D105F0180078130850286088704880189288A028D1890049102930495049607970288
:4001400099309A049C019E02A407A502A705AE10B20FB301B410B506B60FB738B980BB20D804D904DC11DF01010203060406070409020A100B080D120E100F0211A0122053
:400180001402170819221B011D041E101F6021102260240225442680270429042B012F2031023220330434023622370438923B083C103DA83F0259285A81C07BC2FEC4A764
:4001C000CA4ACCE7CEFFD60F0310041007080A100B200E080F0E100411081202150E18021A041B401C021D021E041F0422102301250227042802290E2A053006312032105E
:400200003301340135403608371E3A023E045280580459045B045C115D105F01800C810E83F08401880C89FE8B018E0292019401957F99A39B5C9C019DC59F3AA008A801C9
:40024000AB01AD96AF68B004B1FFB208B403B608B88ABE44BF01D804D904DC01DF0100A00102032004080520060108420A200E461004128016801720189019201A021B0218
:400280001D0A1E461F8020802408254026022720280229202FA83040314032103308340235603604382039023D823F287680820183109002912092109380948497089B04B4
:4002C0009F08A280A301A512A602A702A801A908AE01AF08C0EFC2DDC45ACAECCCFECEF5E802EE08060108061001140C200C280A2E013001320E340138083E114043410569
:4003000049FF4AFF4BFF4DA04F015018528058045A045B045C015D115F016040628064406540668068406A806C406D206E808002831085408606890F8D0A8F059503970C59
:400340009D07A360A50CA703A910AD05AE01AF0AB004B140B201B320B402B50FB710BE10BF41C065C102C52CC630C74EC83BC9FFCAFFCBFFCDAFCE07CF01D018D40FD80464
:40038000D904DA04DB04DC11DD11DF05E040E280E440E540E680E840EA80EC40ED20EE80000803080501062009020A20104614081520160A1A081B0A1D011E041F0425145C
:4003C000264127082A802B012D022E482F04368037043D283E824010430247204B804D024E054F04541056265A105B205D105E866604670470027E808512901291209252BE
:40040000938094249502962097089B049C069D429F08A148A280A301A410A511A604A72CC036C20CC48BCAF0CC50CEF0D023D238D6F0D860DE80E640EE08007305CF07300E
:4004400008FD0A020F0F103012C915FD160F170218CF19301A301BC91C9E1D9E1E601F602494259426602760297331FF34FF3E103F014032410149FF4AFF4BFF4DA04F013B
:400480005018580459045A045D015F016040628064406540668068406A806C406D206E80807F85018601880E89048AF090969268930494A39504965C9B029CC59D019E3AFF
:4004C000A308A4FEA504A601A901AD04B0FFB102B301B50CB908BE01BF04C036C101C53EC6C4C702C81FC9FFCAFFCBFFCDAFCE07CF01D018D804D904DA04DC10DD01DF0150
:40050000E040E280E440E540E680E840EA80EC40ED20EE8000080280030404020604070808080A400B010C010D100E500F031308170419021C042008212222082320250132
:4005400029022A242B092F38308131203304345435403604380839203D803F0841084202454846024720488049044A08504C52508B0890029120925094249502962098088F
:400580009B0C9C469D40A148A280A309A404A503A604A724C05EC2FDC424CA6FCC7FCE56D07AD204E001EE045608580459045B045C225D905F019301A201B001B301D20347
:4005C000D302D804D904DB04DC22DD20DF0101810580062009880A400C400E400F10109013101410170119011A402108281029812C402D012E602F403002318834103582F7
:4006000037013B903F10450846305F80664069406A1080208A08931095409610985099809B809C809D019E60A083A180A420AE02B740C0A9C2BDC43ECABBCCBBCE2CD61054
:40064000D810E021EA02EE0401040202072009200A010C040F401101140419081F1021102408270428012B032F0831023204330134033608377C380839803E443F4054014C
:400680005804590C5B0C5C295D205F01D804D904DC22DF0101200242059106200A100D800F10102012081440150219241B4020022180228929612A082C502D802E20309084
:4006C0003110320135013680384039063B103F105A4079408E489040910693109540961099D09A089B809C809D059E20A082A580AF80B204B640C0FBC2A4C416CAFFCC9DAA
:40070000CE2FD608DE08E640000108010E011001140124012E013601580459045C225F018207830185088B088C068D028E0190079180934094059520960297109B029D044E
:40074000A304A407A501A802A940AA05AB80AC07AD10AF20B002B1FFB201B404BF01D602D739D804D904DB0CDC02DD20DF0101800340059108010B100C010D010F10101429
:4007800012011620174018201A481F802040280429812A292B012C102D802E22309A311035013740388039063A023B503F105A106104688E690470407140720879408C104B
:4007C000910293109504974099109BC09C909D019E28A301A404A580AFA0C0D9C23CC4A7CAFFCC9FCE2FD604D802DE080604070112011C02270230043102320233013401C2
:400800003E04580459045C225F01820188018C01900194019C01A401B401D804D904DC22DF010048034005200741088009080B400D010F121010111112011620184019305B
:400840001A201B011F202109231029112A092B012D212F10318833403501374139173A203B203F128210C0DDC2BDC42FCAEFCC9ACEA7E40438AA3E5558045F0118201A850B
:40088000801082408605A880AD01AF10B502B605EC20EE0301200310050C0703080B09070A040C0C0D050E020F0A10081201150F180C1A011B30210A230524072503270CD2
:4008C0002D302E0F3110330F3520360F3F11540F580459045B045C115D105F0182018502870888088F0491089D02A20CA301AA02AD04B002B104B204B301B408B502B6019E
:40090000B708B920BE10BF41D40FD804D904DB04DC11DD10DF0500100240042005400D010F0810881320140216201708181019811A041D401E021F402108222023822460B2
:400940002614288029802D802F5030803101362438883E223F485A045BA25C405D025E205F08610462107B088108841287408E108F049088942095029620972099049A72B8
:400980009C129D40A088A308A604A704C0CAC250C4AACAD9CC69CEFAD6FFD806DE04E001E602EC01000202040507060108020A0C0B400C020D0B0E040F041420150C161043
:4009C00017021804190C1A021B011C101E201F1023202508270128102A202B0F2C102E20300831103230330F34063520360137403A28580459045C115F01D804D904DC22F5
:400A0000DF0100020182021005490708084109400A400B100D800E24101017601D411E241F5825802684274829822A102F583051352036843B103D403E083F20833087100D
:400A40008E0492409310985099809A189D02A001A108A880C0FDC2EDC4C4CAEDCC7DCE74E240E601EC01580459045C225F01D804D904DC22DF010002018002400380058084
:400A8000066009080A500C400E400F10105013101410281029802B802C112E702F803041310835803B103D803F109240931098509980A001A148AB40AF08B108B560C0B950
:400AC000C2BCC42ECAFBCC1BCE34E850EC20130416803084322036203B023E80C430CC70CE6009200D805304570181A097029C04A301A480AF05C2C0D420D620E020E48027
:400B0000E840EE1014048C8097029C04A480AF04C480EE101B101E108210AB01C660E080EE207F018301DE0459015F0866028D01D603D801E4021B04272052045520B202D4
:400B4000B708C608C801D406E801EC02440182049E04AB04AF20B520D004EC02250267106B906F08AB10C880D880DAC0DC20EC808318879097109F90A708B102E270E680DD
:400B800009800C4081809C01A201AA01C2037A01A201B041DC01EA01EC040006010108020A020C040D010E0410061A021C06002F100A0000C00000000003030000303000D7
:400BC000300000000030300030000000C00B0B00000000000002020000E0E0000001000000000000000000000000000000000000000000000000000000000000000000009A
:400C000000000000000000000000000000000000000000000000000000000000000000000000000000000000000000000000000000000000000000000000000000000000B4
:400C40000000000000000000000000000000000000000000000000000000000000000000000000000000000000000000000000000000000000000000000000000000000074
:400C80000000000000000000000000000000000000000000000000000000000000000000000000000000000000000000000000000000000000000000000000000000000034
:400CC00000000000000000000000000000000000000000000000000000000000000000000000000000000000000000000000000000000000000000000000000000000000F4
:0200000490006A
:0400000000004005B7
:0200000490105A
:04000000BC90ACAF55
:0200000490303A
:02000000C24AF2
:0200000490402A
:4000000000000000000000000000000000000000000000000000000000000000000000000000000000000000000000000000000000000000000000000000000000000000C0
:400040000000000000000000000000000000000000000000000000000000000000000000000000000000000000000000000000000000000000000000000000000000000080
:400080000000000000000000000000000000000000000000000000000000000000000000000000000000000000000000000000000000000000000000000000000000000040
:4000C0000000000000000000000000000000000000000000000000000000000000000000000000000000000000000000000000000000000000000000000000000000000000
:0200000490501A
:0C00000000012E16106900012E2DD2B355
:00000001FF